{
  "_format": "hh-sol-artifact-1",
  "contractName": "Products",
  "sourceName": "contracts/Products.sol",
  "abi": [
    {
      "anonymous": false,
      "inputs": [
        {
          "indexed": false,
          "internalType": "uint256",
          "name": "orderId",
          "type": "uint256"
        },
        {
          "indexed": false,
          "internalType": "address",
          "name": "buyer",
          "type": "address"
        },
        {
          "indexed": false,
          "internalType": "address",
          "name": "seller",
          "type": "address"
        },
        {
          "indexed": false,
          "internalType": "uint256",
          "name": "price",
          "type": "uint256"
        }
      ],
      "name": "OrderCreated",
      "type": "event"
    },
    {
      "anonymous": false,
      "inputs": [
        {
          "indexed": false,
          "internalType": "uint256",
          "name": "orderId",
          "type": "uint256"
        }
      ],
      "name": "OrderDelivered",
      "type": "event"
    },
    {
      "anonymous": false,
      "inputs": [
        {
          "indexed": false,
          "internalType": "uint256",
          "name": "orderId",
          "type": "uint256"
        }
      ],
      "name": "OrderRefunded",
      "type": "event"
    },
    {
      "inputs": [
        {
          "internalType": "string",
          "name": "_name",
          "type": "string"
        },
        {
          "internalType": "string",
          "name": "_category",
          "type": "string"
        },
        {
          "internalType": "string",
          "name": "_imageLink",
          "type": "string"
        },
        {
          "internalType": "string",
          "name": "_descLink",
          "type": "string"
        },
        {
          "internalType": "uint256",
          "name": "_price",
          "type": "uint256"
        },
        {
          "internalType": "string",
          "name": "_location",
          "type": "string"
        },
        {
          "internalType": "uint256",
          "name": "_maxQuantity",
          "type": "uint256"
        },
        {
          "internalType": "uint256",
          "name": "_refundTimeLimit",
          "type": "uint256"
        }
      ],
      "name": "addProduct",
      "outputs": [
        {
          "internalType": "uint256",
          "name": "",
          "type": "uint256"
        }
      ],
      "stateMutability": "nonpayable",
      "type": "function"
    },
    {
      "inputs": [
        {
          "internalType": "address",
          "name": "",
          "type": "address"
        }
      ],
      "name": "arbiters",
      "outputs": [
        {
          "internalType": "bool",
          "name": "",
          "type": "bool"
        }
      ],
      "stateMutability": "view",
      "type": "function"
    },
    {
      "inputs": [
        {
          "internalType": "uint256",
          "name": "_id",
          "type": "uint256"
        }
      ],
      "name": "cancelLive",
      "outputs": [
        {
          "internalType": "bool",
          "name": "",
          "type": "bool"
        }
      ],
      "stateMutability": "nonpayable",
      "type": "function"
    },
    {
      "inputs": [
        {
          "internalType": "address",
          "name": "pubkey",
          "type": "address"
        }
      ],
      "name": "checkUserExists",
      "outputs": [
        {
          "internalType": "bool",
          "name": "",
          "type": "bool"
        }
      ],
      "stateMutability": "view",
      "type": "function"
    },
    {
      "inputs": [
        {
          "internalType": "uint256",
          "name": "_orderId",
          "type": "uint256"
        },
        {
          "internalType": "bool",
          "name": "_success",
          "type": "bool"
        }
      ],
      "name": "confirmDelivery",
      "outputs": [],
      "stateMutability": "nonpayable",
      "type": "function"
    },
    {
      "inputs": [
        {
          "internalType": "string",
          "name": "_storeName",
          "type": "string"
        },
        {
          "internalType": "string",
          "name": "_category",
          "type": "string"
        },
        {
          "internalType": "string",
          "name": "_name",
          "type": "string"
        },
        {
          "internalType": "string",
          "name": "_lastName",
          "type": "string"
        },
        {
          "internalType": "string",
          "name": "_description",
          "type": "string"
        },
        {
          "internalType": "string",
          "name": "_location",
          "type": "string"
        }
      ],
      "name": "createAStore",
      "outputs": [],
      "stateMutability": "nonpayable",
      "type": "function"
    },
    {
      "inputs": [],
      "name": "getLiveDetail",
      "outputs": [
        {
          "components": [
            {
              "internalType": "string",
              "name": "callId",
              "type": "string"
            },
            {
              "internalType": "string",
              "name": "storeName",
              "type": "string"
            },
            {
              "internalType": "address[]",
              "name": "participant",
              "type": "address[]"
            }
          ],
          "internalType": "struct Products.Live[]",
          "name": "",
          "type": "tuple[]"
        }
      ],
      "stateMutability": "view",
      "type": "function"
    },
    {
      "inputs": [
        {
          "internalType": "address",
          "name": "_owner",
          "type": "address"
        }
      ],
      "name": "getProductByAddress",
      "outputs": [
        {
          "components": [
            {
              "internalType": "string",
              "name": "name",
              "type": "string"
            },
            {
              "internalType": "string",
              "name": "category",
              "type": "string"
            },
            {
              "internalType": "string",
              "name": "imageLink",
              "type": "string"
            },
            {
              "internalType": "string",
              "name": "descLink",
              "type": "string"
            },
            {
              "internalType": "uint256",
              "name": "price",
              "type": "uint256"
            },
            {
              "internalType": "uint256",
              "name": "index",
              "type": "uint256"
            },
            {
              "internalType": "enum Products.OrderStatus",
              "name": "status",
              "type": "uint8"
            },
            {
              "internalType": "uint256",
              "name": "quantity",
              "type": "uint256"
            },
            {
              "internalType": "string",
              "name": "location",
              "type": "string"
            },
            {
              "internalType": "uint256",
              "name": "maxQuantity",
              "type": "uint256"
            },
            {
              "internalType": "address payable",
              "name": "owner",
              "type": "address"
            },
            {
              "internalType": "uint256",
              "name": "refundTimeLimit",
              "type": "uint256"
            }
          ],
          "internalType": "struct Products.Product[]",
          "name": "",
          "type": "tuple[]"
        }
      ],
      "stateMutability": "view",
      "type": "function"
    },
    {
      "inputs": [
        {
          "internalType": "address",
          "name": "_owner",
          "type": "address"
        }
      ],
      "name": "getUserStoreDetails",
      "outputs": [
        {
          "internalType": "address",
          "name": "",
          "type": "address"
        },
        {
          "internalType": "string",
          "name": "",
          "type": "string"
        },
        {
          "internalType": "bool",
          "name": "",
          "type": "bool"
        },
        {
          "internalType": "string",
          "name": "",
          "type": "string"
        },
        {
          "internalType": "string",
          "name": "",
          "type": "string"
        },
        {
          "internalType": "string",
          "name": "",
          "type": "string"
        },
        {
          "internalType": "string",
          "name": "",
          "type": "string"
        }
      ],
      "stateMutability": "view",
      "type": "function"
    },
    {
      "inputs": [],
      "name": "orderIdCounter",
      "outputs": [
        {
          "internalType": "uint256",
          "name": "",
          "type": "uint256"
        }
      ],
      "stateMutability": "view",
      "type": "function"
    },
    {
      "inputs": [
        {
          "internalType": "uint256",
          "name": "",
          "type": "uint256"
        }
      ],
      "name": "orders",
      "outputs": [
        {
          "internalType": "uint256",
          "name": "orderId",
          "type": "uint256"
        },
        {
          "internalType": "address",
          "name": "buyer",
          "type": "address"
        },
        {
          "internalType": "address",
          "name": "seller",
          "type": "address"
        },
        {
          "internalType": "uint256",
          "name": "price",
          "type": "uint256"
        },
        {
          "internalType": "enum Products.OrderStatus",
          "name": "status",
          "type": "uint8"
        },
        {
          "internalType": "bool",
          "name": "isPaid",
          "type": "bool"
        },
        {
          "internalType": "bool",
          "name": "isFulfilled",
          "type": "bool"
        },
        {
          "internalType": "bool",
          "name": "isRefunded",
          "type": "bool"
        },
        {
          "internalType": "contract Escrow",
          "name": "escrow",
          "type": "address"
        }
      ],
      "stateMutability": "view",
      "type": "function"
    },
    {
      "inputs": [
        {
          "internalType": "uint256",
          "name": "id",
          "type": "uint256"
        },
        {
          "internalType": "uint256",
          "name": "_price",
          "type": "uint256"
        },
        {
          "internalType": "address payable",
          "name": "_arbiter",
          "type": "address"
        }
      ],
      "name": "placeOrder",
      "outputs": [],
      "stateMutability": "payable",
      "type": "function"
    },
    {
      "inputs": [
        {
          "internalType": "uint256",
          "name": "_orderId",
          "type": "uint256"
        }
      ],
      "name": "refundOrder",
      "outputs": [],
      "stateMutability": "nonpayable",
      "type": "function"
    },
    {
      "inputs": [
        {
          "internalType": "string",
          "name": "_callId",
          "type": "string"
        }
      ],
      "name": "startStream",
      "outputs": [
        {
          "internalType": "bool",
          "name": "",
          "type": "bool"
        }
      ],
      "stateMutability": "nonpayable",
      "type": "function"
    }
  ],
  "bytecode": "0x608060405234801561001057600080fd5b5061517e806100206000396000f3fe6080604052600436106100dd5760003560e01c806393cd5a1f1161007f578063c018c45711610059578063c018c457146102f7578063e35f968014610320578063e57e4a941461035d578063f56a589d14610388576100dd565b806393cd5a1f1461025e578063a85c38ef14610287578063be374423146102cc576100dd565b80635d39c071116100bb5780635d39c071146101645780635f0d382a146101a15780636ef7e8af146101de5780637bf2bb1014610221576100dd565b806304ef0781146100e2578063133f50f51461010b57806335e4365f14610148575b600080fd5b3480156100ee57600080fd5b50610109600480360381019061010491906125ff565b6103c5565b005b34801561011757600080fd5b50610132600480360381019061012d919061269d565b6106b6565b60405161013f91906126d9565b60405180910390f35b610162600480360381019061015d9190612732565b610710565b005b34801561017057600080fd5b5061018b600480360381019061018691906128cb565b610c2f565b60405161019891906126d9565b60405180910390f35b3480156101ad57600080fd5b506101c860048036038101906101c3919061269d565b610dfa565b6040516101d59190612c0a565b60405180910390f35b3480156101ea57600080fd5b506102056004803603810190610200919061269d565b611236565b6040516102189796959493929190612c85565b60405180910390f35b34801561022d57600080fd5b506102486004803603810190610243919061269d565b611714565b60405161025591906126d9565b60405180910390f35b34801561026a57600080fd5b5061028560048036038101906102809190612d17565b611734565b005b34801561029357600080fd5b506102ae60048036038101906102a99190612e4c565b6119b8565b6040516102c399989796959493929190612ef6565b60405180910390f35b3480156102d857600080fd5b506102e1611a9a565b6040516102ee9190612f83565b60405180910390f35b34801561030357600080fd5b5061031e60048036038101906103199190612e4c565b611aa0565b005b34801561032c57600080fd5b5061034760048036038101906103429190612e4c565b611d62565b60405161035491906126d9565b60405180910390f35b34801561036957600080fd5b50610372611e5c565b60405161037f919061317c565b60405180910390f35b34801561039457600080fd5b506103af60048036038101906103aa919061319e565b61206d565b6040516103bc9190612f83565b60405180910390f35b816003600082815260200190815260200160002060010160009054906101000a900473ffffffffffffffffffffffffffffffffffffffff1673ffffffffffffffffffffffffffffffffffffffff163373ffffffffffffffffffffffffffffffffffffffff161461046a576040517f08c379a000000000000000000000000000000000000000000000000000000000815260040161046190613352565b60405180910390fd5b60006003600085815260200190815260200160002090508060040160019054906101000a900460ff166104d2576040517f08c379a00000000000000000000000000000000000000000000000000000000081526004016104c9906133be565b60405180910390fd5b600260048111156104e6576104e56129ce565b5b8160040160009054906101000a900460ff16600481111561050a576105096129ce565b5b1461054a576040517f08c379a00000000000000000000000000000000000000000000000000000000081526004016105419061342a565b60405180910390fd5b8060040160049054906101000a900473ffffffffffffffffffffffffffffffffffffffff1673ffffffffffffffffffffffffffffffffffffffff1663fa0af12a846040518263ffffffff1660e01b81526004016105a791906126d9565b600060405180830381600087803b1580156105c157600080fd5b505af11580156105d5573d6000803e3d6000fd5b5050505082156106115760038160040160006101000a81548160ff02191690836004811115610607576106066129ce565b5b021790555061065c565b60048160040160006101000a81548160ff02191690836004811115610639576106386129ce565b5b021790555060018160040160036101000a81548160ff0219169083151502179055505b60018160040160026101000a81548160ff0219169083151502179055507fe21fe02c1589242b30be2057f54fd54b7ddc463695d19ffdb54f9ebb0584f24a846040516106a89190612f83565b60405180910390a150505050565b600080600760008473ffffffffffffffffffffffffffffffffffffffff1673ffffffffffffffffffffffffffffffffffffffff168152602001908152602001600020600101805461070690613479565b9050119050919050565b600060036000600154815260200190815260200160002090506005600085815260200190815260200160002060040154341015610782576040517f08c379a0000000000000000000000000000000000000000000000000000000008152600401610779906134f6565b60405180910390fd5b8060040160019054906101000a900460ff16156107d4576040517f08c379a00000000000000000000000000000000000000000000000000000000081526004016107cb90613562565b60405180910390fd5b600060048111156107e8576107e76129ce565b5b6005600086815260200190815260200160002060060160009054906101000a900460ff16600481111561081e5761081d6129ce565b5b1461085e576040517f08c379a0000000000000000000000000000000000000000000000000000000008152600401610855906135ce565b60405180910390fd5b600060056000868152602001908152602001600020600a0160009054906101000a900473ffffffffffffffffffffffffffffffffffffffff16905060006040516108a7906124a0565b604051809103906000f0801580156108c3573d6000803e3d6000fd5b5090508073ffffffffffffffffffffffffffffffffffffffff16631794bb3c8386886040518463ffffffff1660e01b81526004016109039392919061361e565b600060405180830381600087803b15801561091d57600080fd5b505af1158015610931573d6000803e3d6000fd5b505050508073ffffffffffffffffffffffffffffffffffffffff1663d0e30db0346040518263ffffffff1660e01b81526004016000604051808303818588803b15801561097d57600080fd5b505af1158015610991573d6000803e3d6000fd5b5050505050600160008154809291906109a990613684565b91905055506001548360000181905550338360010160006101000a81548173ffffffffffffffffffffffffffffffffffffffff021916908373ffffffffffffffffffffffffffffffffffffffff160217905550818360020160006101000a81548173ffffffffffffffffffffffffffffffffffffffff021916908373ffffffffffffffffffffffffffffffffffffffff16021790555084836003018190555060018360040160006101000a81548160ff02191690836004811115610a7057610a6f6129ce565b5b021790555060008360040160016101000a81548160ff02191690831515021790555060008360040160026101000a81548160ff02191690831515021790555060008360040160036101000a81548160ff021916908315150217905550808360040160046101000a81548173ffffffffffffffffffffffffffffffffffffffff021916908373ffffffffffffffffffffffffffffffffffffffff1602179055506007600060056000898152602001908152602001600020600a0160009054906101000a900473ffffffffffffffffffffffffffffffffffffffff1673ffffffffffffffffffffffffffffffffffffffff1673ffffffffffffffffffffffffffffffffffffffff168152602001908152602001600020600601339080600181540180825580915050600190039060005260206000200160009091909190916101000a81548173ffffffffffffffffffffffffffffffffffffffff021916908373ffffffffffffffffffffffffffffffffffffffff1602179055507ff9e17940e547201709f9aaacdec8ab3566601c60d8f5affb54f74b79b0b50b13600154338488604051610c1f94939291906136cc565b60405180910390a1505050505050565b6000610c3a336106b6565b610c79576040517f08c379a0000000000000000000000000000000000000000000000000000000008152600401610c709061375d565b60405180910390fd5b6000600260006009548152602001908152602001600020905082816000019081610ca3919061391f565b50600760003373ffffffffffffffffffffffffffffffffffffffff1673ffffffffffffffffffffffffffffffffffffffff168152602001908152602001600020600101816001019081610cf69190613a1c565b506001600760003373ffffffffffffffffffffffffffffffffffffffff1673ffffffffffffffffffffffffffffffffffffffff16815260200190815260200160002060020160006101000a81548160ff02191690831515021790555082600760003373ffffffffffffffffffffffffffffffffffffffff1673ffffffffffffffffffffffffffffffffffffffff1681526020019081526020016000206008019081610da1919061391f565b50600760003373ffffffffffffffffffffffffffffffffffffffff1673ffffffffffffffffffffffffffffffffffffffff16815260200190815260200160002060020160009054906101000a900460ff16915050919050565b6060600660008373ffffffffffffffffffffffffffffffffffffffff1673ffffffffffffffffffffffffffffffffffffffff168152602001908152602001600020805480602002602001604051908101604052809291908181526020016000905b8282101561122b57838290600052602060002090600c020160405180610180016040529081600082018054610e8f90613479565b80601f0160208091040260200160405190810160405280929190818152602001828054610ebb90613479565b8015610f085780601f10610edd57610100808354040283529160200191610f08565b820191906000526020600020905b815481529060010190602001808311610eeb57829003601f168201915b50505050508152602001600182018054610f2190613479565b80601f0160208091040260200160405190810160405280929190818152602001828054610f4d90613479565b8015610f9a5780601f10610f6f57610100808354040283529160200191610f9a565b820191906000526020600020905b815481529060010190602001808311610f7d57829003601f168201915b50505050508152602001600282018054610fb390613479565b80601f0160208091040260200160405190810160405280929190818152602001828054610fdf90613479565b801561102c5780601f106110015761010080835404028352916020019161102c565b820191906000526020600020905b81548152906001019060200180831161100f57829003601f168201915b5050505050815260200160038201805461104590613479565b80601f016020809104026020016040519081016040528092919081815260200182805461107190613479565b80156110be5780601f10611093576101008083540402835291602001916110be565b820191906000526020600020905b8154815290600101906020018083116110a157829003601f168201915b5050505050815260200160048201548152602001600582015481526020016006820160009054906101000a900460ff166004811115611100576110ff6129ce565b5b6004811115611112576111116129ce565b5b81526020016007820154815260200160088201805461113090613479565b80601f016020809104026020016040519081016040528092919081815260200182805461115c90613479565b80156111a95780601f1061117e576101008083540402835291602001916111a9565b820191906000526020600020905b81548152906001019060200180831161118c57829003601f168201915b5050505050815260200160098201548152602001600a820160009054906101000a900473ffffffffffffffffffffffffffffffffffffffff1673ffffffffffffffffffffffffffffffffffffffff1673ffffffffffffffffffffffffffffffffffffffff168152602001600b8201548152505081526020019060010190610e5b565b505050509050919050565b600060606000606080606080600760008973ffffffffffffffffffffffffffffffffffffffff1673ffffffffffffffffffffffffffffffffffffffff16815260200190815260200160002060000160009054906101000a900473ffffffffffffffffffffffffffffffffffffffff16600760008a73ffffffffffffffffffffffffffffffffffffffff1673ffffffffffffffffffffffffffffffffffffffff168152602001908152602001600020600301600760008b73ffffffffffffffffffffffffffffffffffffffff1673ffffffffffffffffffffffffffffffffffffffff16815260200190815260200160002060020160009054906101000a900460ff16600760008c73ffffffffffffffffffffffffffffffffffffffff1673ffffffffffffffffffffffffffffffffffffffff168152602001908152602001600020600701600760008d73ffffffffffffffffffffffffffffffffffffffff1673ffffffffffffffffffffffffffffffffffffffff168152602001908152602001600020600501600760008e73ffffffffffffffffffffffffffffffffffffffff1673ffffffffffffffffffffffffffffffffffffffff168152602001908152602001600020600401600760008f73ffffffffffffffffffffffffffffffffffffffff1673ffffffffffffffffffffffffffffffffffffffff16815260200190815260200160002060010185805461144b90613479565b80601f016020809104026020016040519081016040528092919081815260200182805461147790613479565b80156114c45780601f10611499576101008083540402835291602001916114c4565b820191906000526020600020905b8154815290600101906020018083116114a757829003601f168201915b505050505095508380546114d790613479565b80601f016020809104026020016040519081016040528092919081815260200182805461150390613479565b80156115505780601f1061152557610100808354040283529160200191611550565b820191906000526020600020905b81548152906001019060200180831161153357829003601f168201915b5050505050935082805461156390613479565b80601f016020809104026020016040519081016040528092919081815260200182805461158f90613479565b80156115dc5780601f106115b1576101008083540402835291602001916115dc565b820191906000526020600020905b8154815290600101906020018083116115bf57829003601f168201915b505050505092508180546115ef90613479565b80601f016020809104026020016040519081016040528092919081815260200182805461161b90613479565b80156116685780601f1061163d57610100808354040283529160200191611668565b820191906000526020600020905b81548152906001019060200180831161164b57829003601f168201915b5050505050915080805461167b90613479565b80601f01602080910402602001604051908101604052809291908181526020018280546116a790613479565b80156116f45780601f106116c9576101008083540402835291602001916116f4565b820191906000526020600020905b8154815290600101906020018083116116d757829003601f168201915b505050505090509650965096509650965096509650919395979092949650565b60046020528060005260406000206000915054906101000a900460ff1681565b6000600760003373ffffffffffffffffffffffffffffffffffffffff1673ffffffffffffffffffffffffffffffffffffffff168152602001908152602001600020905086816001019081611788919061391f565b50338160000160006101000a81548173ffffffffffffffffffffffffffffffffffffffff021916908373ffffffffffffffffffffffffffffffffffffffff160217905550848160040190816117dd919061391f565b50858160030190816117ef919061391f565b5083816005019081611801919061391f565b5082816007019081611813919061391f565b5060008160020160006101000a81548160ff02191690831515021790555081816009019081611842919061391f565b50600b8190806001815401808255809150506001900390600052602060002090600a02016000909190919091506000820160009054906101000a900473ffffffffffffffffffffffffffffffffffffffff168160000160006101000a81548173ffffffffffffffffffffffffffffffffffffffff021916908373ffffffffffffffffffffffffffffffffffffffff160217905550600182018160010190816118ea9190613b1a565b506002820160009054906101000a900460ff168160020160006101000a81548160ff0219169083151502179055506003820181600301908161192c9190613b1a565b50600482018160040190816119419190613b1a565b50600582018160050190816119569190613b1a565b50600682018160060190805461196d9291906124ad565b50600782018160070190816119829190613b1a565b50600882018160080190816119979190613b1a565b50600982018160090190816119ac9190613b1a565b50505050505050505050565b60036020528060005260406000206000915090508060000154908060010160009054906101000a900473ffffffffffffffffffffffffffffffffffffffff16908060020160009054906101000a900473ffffffffffffffffffffffffffffffffffffffff16908060030154908060040160009054906101000a900460ff16908060040160019054906101000a900460ff16908060040160029054906101000a900460ff16908060040160039054906101000a900460ff16908060040160049054906101000a900473ffffffffffffffffffffffffffffffffffffffff16905089565b60015481565b806003600082815260200190815260200160002060010160009054906101000a900473ffffffffffffffffffffffffffffffffffffffff1673ffffffffffffffffffffffffffffffffffffffff163373ffffffffffffffffffffffffffffffffffffffff1614611b45576040517f08c379a0000000000000000000000000000000000000000000000000000000008152600401611b3c90613352565b60405180910390fd5b60006003600084815260200190815260200160002090508060040160019054906101000a900460ff16611bad576040517f08c379a0000000000000000000000000000000000000000000000000000000008152600401611ba4906133be565b60405180910390fd5b8060040160029054906101000a900460ff1615611bff576040517f08c379a0000000000000000000000000000000000000000000000000000000008152600401611bf690613c74565b60405180910390fd5b60056000848152602001908152602001600020600b0154421015611c58576040517f08c379a0000000000000000000000000000000000000000000000000000000008152600401611c4f90613d06565b60405180910390fd5b8060040160049054906101000a900473ffffffffffffffffffffffffffffffffffffffff1673ffffffffffffffffffffffffffffffffffffffff1663e8a61cc86040518163ffffffff1660e01b8152600401600060405180830381600087803b158015611cc457600080fd5b505af1158015611cd8573d6000803e3d6000fd5b5050505060048160040160006101000a81548160ff02191690836004811115611d0457611d036129ce565b5b021790555060018160040160036101000a81548160ff0219169083151502179055507f303a31648d19f17852cf82657162c4bdd4a06ab3f36f1e7ae1118f4ca6473e1183604051611d559190612f83565b60405180910390a1505050565b60006002600083815260200190815260200160002060008082016000611d8891906124ff565b600182016000611d9891906124ff565b600282016000611da8919061253f565b50506000600760003373ffffffffffffffffffffffffffffffffffffffff1673ffffffffffffffffffffffffffffffffffffffff16815260200190815260200160002060020160006101000a81548160ff021916908315150217905550600760003373ffffffffffffffffffffffffffffffffffffffff1673ffffffffffffffffffffffffffffffffffffffff16815260200190815260200160002060020160009054906101000a900460ff169050919050565b6060600c805480602002602001604051908101604052809291908181526020016000905b828210156120645783829060005260206000209060030201604051806060016040529081600082018054611eb390613479565b80601f0160208091040260200160405190810160405280929190818152602001828054611edf90613479565b8015611f2c5780601f10611f0157610100808354040283529160200191611f2c565b820191906000526020600020905b815481529060010190602001808311611f0f57829003601f168201915b50505050508152602001600182018054611f4590613479565b80601f0160208091040260200160405190810160405280929190818152602001828054611f7190613479565b8015611fbe5780601f10611f9357610100808354040283529160200191611fbe565b820191906000526020600020905b815481529060010190602001808311611fa157829003601f168201915b505050505081526020016002820180548060200260200160405190810160405280929190818152602001828054801561204c57602002820191906000526020600020905b8160009054906101000a900473ffffffffffffffffffffffffffffffffffffffff1673ffffffffffffffffffffffffffffffffffffffff1681526020019060010190808311612002575b50505050508152505081526020019060010190611e80565b50505050905090565b6000600760003373ffffffffffffffffffffffffffffffffffffffff1673ffffffffffffffffffffffffffffffffffffffff16815260200190815260200160002060000160009054906101000a900473ffffffffffffffffffffffffffffffffffffffff1673ffffffffffffffffffffffffffffffffffffffff163373ffffffffffffffffffffffffffffffffffffffff161461213f576040517f08c379a000000000000000000000000000000000000000000000000000000000815260040161213690613d98565b60405180910390fd5b612148336106b6565b612187576040517f08c379a000000000000000000000000000000000000000000000000000000000815260040161217e9061375d565b60405180910390fd5b600073ffffffffffffffffffffffffffffffffffffffff163373ffffffffffffffffffffffffffffffffffffffff16036121f6576040517f08c379a00000000000000000000000000000000000000000000000000000000081526004016121ed90613e04565b60405180910390fd5b6008600081548092919061220990613684565b91905055506000600560006008548152602001908152602001600020905089816000019081612238919061391f565b503381600a0160006101000a81548173ffffffffffffffffffffffffffffffffffffffff021916908373ffffffffffffffffffffffffffffffffffffffff1602179055508881600101908161228d919061391f565b508681600301908161229f919061391f565b50878160020190816122b1919061391f565b506008548160050181905550848160080190816122ce919061391f565b508381600901819055508581600401819055506000816007018190555060008160060160006101000a81548160ff02191690836004811115612313576123126129ce565b5b02179055508281600b0181905550600a8190806001815401808255809150506001900390600052602060002090600c0201600090919091909150600082018160000190816123619190613b1a565b50600182018160010190816123769190613b1a565b506002820181600201908161238b9190613b1a565b50600382018160030190816123a09190613b1a565b5060048201548160040155600582015481600501556006820160009054906101000a900460ff168160060160006101000a81548160ff021916908360048111156123ed576123ec6129ce565b5b021790555060078201548160070155600882018160080190816124109190613b1a565b5060098201548160090155600a820160009054906101000a900473ffffffffffffffffffffffffffffffffffffffff1681600a0160006101000a81548173ffffffffffffffffffffffffffffffffffffffff021916908373ffffffffffffffffffffffffffffffffffffffff160217905550600b82015481600b0155505060085491505098975050505050505050565b61132480613e2583390190565b8280548282559060005260206000209081019282156124ee5760005260206000209182015b828111156124ed5782548255916001019190600101906124d2565b5b5090506124fb9190612560565b5090565b50805461250b90613479565b6000825580601f1061251d575061253c565b601f01602090049060005260206000209081019061253b9190612560565b5b50565b508054600082559060005260206000209081019061255d9190612560565b50565b5b80821115612579576000816000905550600101612561565b5090565b6000604051905090565b600080fd5b600080fd5b6000819050919050565b6125a481612591565b81146125af57600080fd5b50565b6000813590506125c18161259b565b92915050565b60008115159050919050565b6125dc816125c7565b81146125e757600080fd5b50565b6000813590506125f9816125d3565b92915050565b6000806040838503121561261657612615612587565b5b6000612624858286016125b2565b9250506020612635858286016125ea565b9150509250929050565b600073ffffffffffffffffffffffffffffffffffffffff82169050919050565b600061266a8261263f565b9050919050565b61267a8161265f565b811461268557600080fd5b50565b60008135905061269781612671565b92915050565b6000602082840312156126b3576126b2612587565b5b60006126c184828501612688565b91505092915050565b6126d3816125c7565b82525050565b60006020820190506126ee60008301846126ca565b92915050565b60006126ff8261263f565b9050919050565b61270f816126f4565b811461271a57600080fd5b50565b60008135905061272c81612706565b92915050565b60008060006060848603121561274b5761274a612587565b5b6000612759868287016125b2565b935050602061276a868287016125b2565b925050604061277b8682870161271d565b9150509250925092565b600080fd5b600080fd5b6000601f19601f8301169050919050565b7f4e487b7100000000000000000000000000000000000000000000000000000000600052604160045260246000fd5b6127d88261278f565b810181811067ffffffffffffffff821117156127f7576127f66127a0565b5b80604052505050565b600061280a61257d565b905061281682826127cf565b919050565b600067ffffffffffffffff821115612836576128356127a0565b5b61283f8261278f565b9050602081019050919050565b82818337600083830152505050565b600061286e6128698461281b565b612800565b90508281526020810184848401111561288a5761288961278a565b5b61289584828561284c565b509392505050565b600082601f8301126128b2576128b1612785565b5b81356128c284826020860161285b565b91505092915050565b6000602082840312156128e1576128e0612587565b5b600082013567ffffffffffffffff8111156128ff576128fe61258c565b5b61290b8482850161289d565b91505092915050565b600081519050919050565b600082825260208201905092915050565b6000819050602082019050919050565b600081519050919050565b600082825260208201905092915050565b60005b8381101561297a57808201518184015260208101905061295f565b60008484015250505050565b600061299182612940565b61299b818561294b565b93506129ab81856020860161295c565b6129b48161278f565b840191505092915050565b6129c881612591565b82525050565b7f4e487b7100000000000000000000000000000000000000000000000000000000600052602160045260246000fd5b60058110612a0e57612a0d6129ce565b5b50565b6000819050612a1f826129fd565b919050565b6000612a2f82612a11565b9050919050565b612a3f81612a24565b82525050565b612a4e816126f4565b82525050565b6000610180830160008301518482036000860152612a728282612986565b91505060208301518482036020860152612a8c8282612986565b91505060408301518482036040860152612aa68282612986565b91505060608301518482036060860152612ac08282612986565b9150506080830151612ad560808601826129bf565b5060a0830151612ae860a08601826129bf565b5060c0830151612afb60c0860182612a36565b5060e0830151612b0e60e08601826129bf565b50610100830151848203610100860152612b288282612986565b915050610120830151612b3f6101208601826129bf565b50610140830151612b54610140860182612a45565b50610160830151612b696101608601826129bf565b508091505092915050565b6000612b808383612a54565b905092915050565b6000602082019050919050565b6000612ba082612914565b612baa818561291f565b935083602082028501612bbc85612930565b8060005b85811015612bf85784840389528151612bd98582612b74565b9450612be483612b88565b925060208a01995050600181019050612bc0565b50829750879550505050505092915050565b60006020820190508181036000830152612c248184612b95565b905092915050565b612c358161265f565b82525050565b600082825260208201905092915050565b6000612c5782612940565b612c618185612c3b565b9350612c7181856020860161295c565b612c7a8161278f565b840191505092915050565b600060e082019050612c9a600083018a612c2c565b8181036020830152612cac8189612c4c565b9050612cbb60408301886126ca565b8181036060830152612ccd8187612c4c565b90508181036080830152612ce18186612c4c565b905081810360a0830152612cf58185612c4c565b905081810360c0830152612d098184612c4c565b905098975050505050505050565b60008060008060008060c08789031215612d3457612d33612587565b5b600087013567ffffffffffffffff811115612d5257612d5161258c565b5b612d5e89828a0161289d565b965050602087013567ffffffffffffffff811115612d7f57612d7e61258c565b5b612d8b89828a0161289d565b955050604087013567ffffffffffffffff811115612dac57612dab61258c565b5b612db889828a0161289d565b945050606087013567ffffffffffffffff811115612dd957612dd861258c565b5b612de589828a0161289d565b935050608087013567ffffffffffffffff811115612e0657612e0561258c565b5b612e1289828a0161289d565b92505060a087013567ffffffffffffffff811115612e3357612e3261258c565b5b612e3f89828a0161289d565b9150509295509295509295565b600060208284031215612e6257612e61612587565b5b6000612e70848285016125b2565b91505092915050565b612e8281612591565b82525050565b612e9181612a24565b82525050565b6000819050919050565b6000612ebc612eb7612eb28461263f565b612e97565b61263f565b9050919050565b6000612ece82612ea1565b9050919050565b6000612ee082612ec3565b9050919050565b612ef081612ed5565b82525050565b600061012082019050612f0c600083018c612e79565b612f19602083018b612c2c565b612f26604083018a612c2c565b612f336060830189612e79565b612f406080830188612e88565b612f4d60a08301876126ca565b612f5a60c08301866126ca565b612f6760e08301856126ca565b612f75610100830184612ee7565b9a9950505050505050505050565b6000602082019050612f986000830184612e79565b92915050565b600081519050919050565b600082825260208201905092915050565b6000819050602082019050919050565b600081519050919050565b600082825260208201905092915050565b6000819050602082019050919050565b612fff8161265f565b82525050565b60006130118383612ff6565b60208301905092915050565b6000602082019050919050565b600061303582612fca565b61303f8185612fd5565b935061304a83612fe6565b8060005b8381101561307b5781516130628882613005565b975061306d8361301d565b92505060018101905061304e565b5085935050505092915050565b600060608301600083015184820360008601526130a58282612986565b915050602083015184820360208601526130bf8282612986565b915050604083015184820360408601526130d9828261302a565b9150508091505092915050565b60006130f28383613088565b905092915050565b6000602082019050919050565b600061311282612f9e565b61311c8185612fa9565b93508360208202850161312e85612fba565b8060005b8581101561316a578484038952815161314b85826130e6565b9450613156836130fa565b925060208a01995050600181019050613132565b50829750879550505050505092915050565b600060208201905081810360008301526131968184613107565b905092915050565b600080600080600080600080610100898b0312156131bf576131be612587565b5b600089013567ffffffffffffffff8111156131dd576131dc61258c565b5b6131e98b828c0161289d565b985050602089013567ffffffffffffffff81111561320a5761320961258c565b5b6132168b828c0161289d565b975050604089013567ffffffffffffffff8111156132375761323661258c565b5b6132438b828c0161289d565b965050606089013567ffffffffffffffff8111156132645761326361258c565b5b6132708b828c0161289d565b95505060806132818b828c016125b2565b94505060a089013567ffffffffffffffff8111156132a2576132a161258c565b5b6132ae8b828c0161289d565b93505060c06132bf8b828c016125b2565b92505060e06132d08b828c016125b2565b9150509295985092959890939650565b7f4f6e6c79207468652062757965722063616e2063616c6c20746869732066756e60008201527f6374696f6e2e0000000000000000000000000000000000000000000000000000602082015250565b600061333c602683612c3b565b9150613347826132e0565b604082019050919050565b6000602082019050818103600083015261336b8161332f565b9050919050565b7f5061796d656e7420686173206e6f74206265656e206d6164652e000000000000600082015250565b60006133a8601a83612c3b565b91506133b382613372565b602082019050919050565b600060208201905081810360008301526133d78161339b565b9050919050565b7f4f7264657220686173206e6f74206265656e20736869707065642e0000000000600082015250565b6000613414601b83612c3b565b915061341f826133de565b602082019050919050565b6000602082019050818103600083015261344381613407565b9050919050565b7f4e487b7100000000000000000000000000000000000000000000000000000000600052602260045260246000fd5b6000600282049050600182168061349157607f821691505b6020821081036134a4576134a361344a565b5b50919050565b7f496e73756666696369656e74207061796d656e742e0000000000000000000000600082015250565b60006134e0601583612c3b565b91506134eb826134aa565b602082019050919050565b6000602082019050818103600083015261350f816134d3565b9050919050565b7f5061796d656e742068617320616c7265616479206265656e206d6164652e0000600082015250565b600061354c601e83612c3b565b915061355782613516565b602082019050919050565b6000602082019050818103600083015261357b8161353f565b9050919050565b7f50726f64756374206973206e6f7420617661696c61626c652e00000000000000600082015250565b60006135b8601983612c3b565b91506135c382613582565b602082019050919050565b600060208201905081810360008301526135e7816135ab565b9050919050565b6135f7816126f4565b82525050565b600061360882612ec3565b9050919050565b613618816135fd565b82525050565b600060608201905061363360008301866135ee565b613640602083018561360f565b61364d6040830184612e79565b949350505050565b7f4e487b7100000000000000000000000000000000000000000000000000000000600052601160045260246000fd5b600061368f82612591565b91507fffffffffffffffffffffffffffffffffffffffffffffffffffffffffffffffff82036136c1576136c0613655565b5b600182019050919050565b60006080820190506136e16000830187612e79565b6136ee6020830186612c2c565b6136fb604083018561360f565b6137086060830184612e79565b95945050505050565b7f53746f726520646f6573206e6f742065786973742e0000000000000000000000600082015250565b6000613747601583612c3b565b915061375282613711565b602082019050919050565b600060208201905081810360008301526137768161373a565b9050919050565b60008190508160005260206000209050919050565b60006020601f8301049050919050565b600082821b905092915050565b6000600883026137df7fffffffffffffffffffffffffffffffffffffffffffffffffffffffffffffffff826137a2565b6137e986836137a2565b95508019841693508086168417925050509392505050565b600061381c61381761381284612591565b612e97565b612591565b9050919050565b6000819050919050565b61383683613801565b61384a61384282613823565b8484546137af565b825550505050565b600090565b61385f613852565b61386a81848461382d565b505050565b5b8181101561388e57613883600082613857565b600181019050613870565b5050565b601f8211156138d3576138a48161377d565b6138ad84613792565b810160208510156138bc578190505b6138d06138c885613792565b83018261386f565b50505b505050565b600082821c905092915050565b60006138f6600019846008026138d8565b1980831691505092915050565b600061390f83836138e5565b9150826002028217905092915050565b61392882612940565b67ffffffffffffffff811115613941576139406127a0565b5b61394b8254613479565b613956828285613892565b600060209050601f8311600181146139895760008415613977578287015190505b6139818582613903565b8655506139e9565b601f1984166139978661377d565b60005b828110156139bf5784890151825560018201915060208501945060208101905061399a565b868310156139dc57848901516139d8601f8916826138e5565b8355505b6001600288020188555050505b505050505050565b600081549050613a0081613479565b9050919050565b60008190508160005260206000209050919050565b818103613a2a575050613b02565b613a33826139f1565b67ffffffffffffffff811115613a4c57613a4b6127a0565b5b613a568254613479565b613a61828285613892565b6000601f831160018114613a905760008415613a7e578287015490505b613a888582613903565b865550613afb565b601f198416613a9e87613a07565b9650613aa98661377d565b60005b82811015613ad157848901548255600182019150600185019450602081019050613aac565b86831015613aee5784890154613aea601f8916826138e5565b8355505b6001600288020188555050505b5050505050505b565b600081549050613b1381613479565b9050919050565b818103613b28575050613c00565b613b3182613b04565b67ffffffffffffffff811115613b4a57613b496127a0565b5b613b548254613479565b613b5f828285613892565b6000601f831160018114613b8e5760008415613b7c578287015490505b613b868582613903565b865550613bf9565b601f198416613b9c8761377d565b9650613ba78661377d565b60005b82811015613bcf57848901548255600182019150600185019450602081019050613baa565b86831015613bec5784890154613be8601f8916826138e5565b8355505b6001600288020188555050505b5050505050505b565b7f4f726465722068617320616c7265616479206265656e2066756c66696c6c656460008201527f2e00000000000000000000000000000000000000000000000000000000000000602082015250565b6000613c5e602183612c3b565b9150613c6982613c02565b604082019050919050565b60006020820190508181036000830152613c8d81613c51565b9050919050565b7f526566756e642074696d65206c696d697420686173206e6f74206265656e207260008201527f6561636865642e00000000000000000000000000000000000000000000000000602082015250565b6000613cf0602783612c3b565b9150613cfb82613c94565b604082019050919050565b60006020820190508181036000830152613d1f81613ce3565b9050919050565b7f4f6e6c792074686520636f6e7472616374206f776e65722063616e2063616c6c60008201527f20746869732066756e6374696f6e2e0000000000000000000000000000000000602082015250565b6000613d82602f83612c3b565b9150613d8d82613d26565b604082019050919050565b60006020820190508181036000830152613db181613d75565b9050919050565b7f496e76616c69642073656e64657220616464726573732e000000000000000000600082015250565b6000613dee601783612c3b565b9150613df982613db8565b602082019050919050565b60006020820190508181036000830152613e1d81613de1565b905091905056fe608060405234801561001057600080fd5b50611304806100206000396000f3fe6080604052600436106100a75760003560e01c8063a035b1fe11610064578063a035b1fe1461019f578063d0e30db0146101ca578063e8a61cc8146101d4578063ed11d7a8146101eb578063fa0af12a14610202578063fe25e00a1461022b576100a7565b806308551a53146100ac5780631794bb3c146100d7578063209ebc08146100f35780636f9fb98a1461011e5780637150d8ae14610149578063765f744c14610174575b600080fd5b3480156100b857600080fd5b506100c1610256565b6040516100ce9190610d29565b60405180910390f35b6100f160048036038101906100ec9190610de9565b61027c565b005b3480156100ff57600080fd5b5061010861038d565b6040516101159190610e57565b60405180910390f35b34801561012a57600080fd5b506101336103a0565b6040516101409190610e81565b60405180910390f35b34801561015557600080fd5b5061015e6103a8565b60405161016b9190610d29565b60405180910390f35b34801561018057600080fd5b506101896103cc565b6040516101969190610e57565b60405180910390f35b3480156101ab57600080fd5b506101b46103df565b6040516101c19190610e81565b60405180910390f35b6101d26103e5565b005b3480156101e057600080fd5b506101e9610584565b005b3480156101f757600080fd5b506102006107e5565b005b34801561020e57600080fd5b5061022960048036038101906102249190610ec8565b6109a8565b005b34801561023757600080fd5b50610240610cc2565b60405161024d9190610d29565b60405180910390f35b600160009054906101000a900473ffffffffffffffffffffffffffffffffffffffff1681565b6000341161028957600080fd5b336000806101000a81548173ffffffffffffffffffffffffffffffffffffffff021916908373ffffffffffffffffffffffffffffffffffffffff16021790555082600160006101000a81548173ffffffffffffffffffffffffffffffffffffffff021916908373ffffffffffffffffffffffffffffffffffffffff16021790555081600260006101000a81548173ffffffffffffffffffffffffffffffffffffffff021916908373ffffffffffffffffffffffffffffffffffffffff160217905550806003819055506000600460006101000a81548160ff0219169083151502179055506000600460016101000a81548160ff021916908315150217905550505050565b600460009054906101000a900460ff1681565b600047905090565b60008054906101000a900473ffffffffffffffffffffffffffffffffffffffff1681565b600460019054906101000a900460ff1681565b60035481565b60008054906101000a900473ffffffffffffffffffffffffffffffffffffffff1673ffffffffffffffffffffffffffffffffffffffff163373ffffffffffffffffffffffffffffffffffffffff1614610473576040517f08c379a000000000000000000000000000000000000000000000000000000000815260040161046a90610f78565b60405180910390fd5b600460009054906101000a900460ff1615801561049d5750600460019054906101000a900460ff16155b6104dc576040517f08c379a00000000000000000000000000000000000000000000000000000000081526004016104d390610fe4565b60405180910390fd5b6003543414610520576040517f08c379a000000000000000000000000000000000000000000000000000000000815260040161051790611050565b60405180910390fd5b3073ffffffffffffffffffffffffffffffffffffffff166108fc349081150290604051600060405180830381858888f19350505050158015610566573d6000803e3d6000fd5b506001600460006101000a81548160ff021916908315150217905550565b60008054906101000a900473ffffffffffffffffffffffffffffffffffffffff1673ffffffffffffffffffffffffffffffffffffffff163373ffffffffffffffffffffffffffffffffffffffff1614610612576040517f08c379a000000000000000000000000000000000000000000000000000000000815260040161060990610f78565b60405180910390fd5b600460009054906101000a900460ff16610661576040517f08c379a0000000000000000000000000000000000000000000000000000000008152600401610658906110bc565b60405180910390fd5b600460019054906101000a900460ff16156106b1576040517f08c379a00000000000000000000000000000000000000000000000000000000081526004016106a890611128565b60405180910390fd5b60008054906101000a900473ffffffffffffffffffffffffffffffffffffffff1673ffffffffffffffffffffffffffffffffffffffff166108fc6003549081150290604051600060405180830381858888f19350505050158015610719573d6000803e3d6000fd5b507fdf20fd1e76bc69d672e4814fafb2c449bba3a5369d8359adf9e05e6fde87b05660008054906101000a900473ffffffffffffffffffffffffffffffffffffffff1660035460405161076d9291906111a7565b60405180910390a16000600460006101000a81548160ff0219169083151502179055506001600460016101000a81548160ff0219169083151502179055507f03445cb5f8dea2a1372e8ac1ea53d21c0c5fbb0cc7dfe8af6d56a5414827179d60006040516107db9190610e57565b60405180910390a1565b600260009054906101000a900473ffffffffffffffffffffffffffffffffffffffff1673ffffffffffffffffffffffffffffffffffffffff163373ffffffffffffffffffffffffffffffffffffffff1614610875576040517f08c379a000000000000000000000000000000000000000000000000000000000815260040161086c90611242565b60405180910390fd5b600460009054906101000a900460ff16801561089d5750600460019054906101000a900460ff165b6108dc576040517f08c379a00000000000000000000000000000000000000000000000000000000081526004016108d3906112ae565b60405180910390fd5b6000479050600260009054906101000a900473ffffffffffffffffffffffffffffffffffffffff1673ffffffffffffffffffffffffffffffffffffffff166108fc829081150290604051600060405180830381858888f19350505050158015610949573d6000803e3d6000fd5b507fdf20fd1e76bc69d672e4814fafb2c449bba3a5369d8359adf9e05e6fde87b056600260009054906101000a900473ffffffffffffffffffffffffffffffffffffffff168260405161099d9291906111a7565b60405180910390a150565b60008054906101000a900473ffffffffffffffffffffffffffffffffffffffff1673ffffffffffffffffffffffffffffffffffffffff163373ffffffffffffffffffffffffffffffffffffffff1614610a36576040517f08c379a0000000000000000000000000000000000000000000000000000000008152600401610a2d90610f78565b60405180910390fd5b600460009054906101000a900460ff16610a85576040517f08c379a0000000000000000000000000000000000000000000000000000000008152600401610a7c906110bc565b60405180910390fd5b600460019054906101000a900460ff1615610ad5576040517f08c379a0000000000000000000000000000000000000000000000000000000008152600401610acc90611128565b60405180910390fd5b8015610ba857600160009054906101000a900473ffffffffffffffffffffffffffffffffffffffff1673ffffffffffffffffffffffffffffffffffffffff166108fc6003549081150290604051600060405180830381858888f19350505050158015610b45573d6000803e3d6000fd5b507fdf20fd1e76bc69d672e4814fafb2c449bba3a5369d8359adf9e05e6fde87b056600160009054906101000a900473ffffffffffffffffffffffffffffffffffffffff16600354604051610b9b9291906111a7565b60405180910390a1610c6d565b60008054906101000a900473ffffffffffffffffffffffffffffffffffffffff1673ffffffffffffffffffffffffffffffffffffffff166108fc6003549081150290604051600060405180830381858888f19350505050158015610c10573d6000803e3d6000fd5b507fdf20fd1e76bc69d672e4814fafb2c449bba3a5369d8359adf9e05e6fde87b05660008054906101000a900473ffffffffffffffffffffffffffffffffffffffff16600354604051610c649291906111a7565b60405180910390a15b6001600460016101000a81548160ff0219169083151502179055507f03445cb5f8dea2a1372e8ac1ea53d21c0c5fbb0cc7dfe8af6d56a5414827179d81604051610cb79190610e57565b60405180910390a150565b600260009054906101000a900473ffffffffffffffffffffffffffffffffffffffff1681565b600073ffffffffffffffffffffffffffffffffffffffff82169050919050565b6000610d1382610ce8565b9050919050565b610d2381610d08565b82525050565b6000602082019050610d3e6000830184610d1a565b92915050565b600080fd5b610d5281610d08565b8114610d5d57600080fd5b50565b600081359050610d6f81610d49565b92915050565b6000610d8082610ce8565b9050919050565b610d9081610d75565b8114610d9b57600080fd5b50565b600081359050610dad81610d87565b92915050565b6000819050919050565b610dc681610db3565b8114610dd157600080fd5b50565b600081359050610de381610dbd565b92915050565b600080600060608486031215610e0257610e01610d44565b5b6000610e1086828701610d60565b9350506020610e2186828701610d9e565b9250506040610e3286828701610dd4565b9150509250925092565b60008115159050919050565b610e5181610e3c565b82525050565b6000602082019050610e6c6000830184610e48565b92915050565b610e7b81610db3565b82525050565b6000602082019050610e966000830184610e72565b92915050565b610ea581610e3c565b8114610eb057600080fd5b50565b600081359050610ec281610e9c565b92915050565b600060208284031215610ede57610edd610d44565b5b6000610eec84828501610eb3565b91505092915050565b600082825260208201905092915050565b7f4f6e6c792062757965722063616e2063616c6c20746869732066756e6374696f60008201527f6e2e000000000000000000000000000000000000000000000000000000000000602082015250565b6000610f62602283610ef5565b9150610f6d82610f06565b604082019050919050565b60006020820190508181036000830152610f9181610f55565b9050919050565b7f457363726f7720697320616c726561647920636f6d706c657465642e00000000600082015250565b6000610fce601c83610ef5565b9150610fd982610f98565b602082019050919050565b60006020820190508181036000830152610ffd81610fc1565b9050919050565b7f496e636f7272656374206465706f73697420616d6f756e742e00000000000000600082015250565b600061103a601983610ef5565b915061104582611004565b602082019050919050565b600060208201905081810360008301526110698161102d565b9050919050565b7f5061796d656e7420686173206e6f74206265656e206d6164652e000000000000600082015250565b60006110a6601a83610ef5565b91506110b182611070565b602082019050919050565b600060208201905081810360008301526110d581611099565b9050919050565b7f44656c697665727920697320616c726561647920636f6e6669726d65642e0000600082015250565b6000611112601e83610ef5565b915061111d826110dc565b602082019050919050565b6000602082019050818103600083015261114181611105565b9050919050565b6000819050919050565b600061116d61116861116384610ce8565b611148565b610ce8565b9050919050565b600061117f82611152565b9050919050565b600061119182611174565b9050919050565b6111a181611186565b82525050565b60006040820190506111bc6000830185611198565b6111c96020830184610e72565b9392505050565b7f4f6e6c7920617262697465722063616e2063616c6c20746869732066756e637460008201527f696f6e2e00000000000000000000000000000000000000000000000000000000602082015250565b600061122c602483610ef5565b9150611237826111d0565b604082019050919050565b6000602082019050818103600083015261125b8161121f565b9050919050565b7f457363726f77206973206e6f7420636f6d706c65746564207965742e00000000600082015250565b6000611298601c83610ef5565b91506112a382611262565b602082019050919050565b600060208201905081810360008301526112c78161128b565b905091905056fea26469706673582212200c6a6d4b86f84a9988c968afeedadc376e83acd7622e5be4aefa320277ff2b8564736f6c63430008120033a2646970667358221220691132115e5d02a01e898b5fc2c24239b465d56dd2c74087dfd73475c84f93e464736f6c63430008120033",
  "linkReferences": {},
  "deployedLinkReferences": {}
}