{
  "_format": "hh-sol-artifact-1",
  "contractName": "Products",
  "sourceName": "contracts/Products.sol",
  "abi": [
    {
      "anonymous": false,
      "inputs": [
        {
          "indexed": false,
          "internalType": "uint256",
          "name": "orderId",
          "type": "uint256"
        },
        {
          "indexed": false,
          "internalType": "address",
          "name": "buyer",
          "type": "address"
        },
        {
          "indexed": false,
          "internalType": "address",
          "name": "seller",
          "type": "address"
        },
        {
          "indexed": false,
          "internalType": "uint256",
          "name": "price",
          "type": "uint256"
        }
      ],
      "name": "OrderCreated",
      "type": "event"
    },
    {
      "anonymous": false,
      "inputs": [
        {
          "indexed": false,
          "internalType": "uint256",
          "name": "orderId",
          "type": "uint256"
        }
      ],
      "name": "OrderDelivered",
      "type": "event"
    },
    {
      "anonymous": false,
      "inputs": [
        {
          "indexed": false,
          "internalType": "uint256",
          "name": "orderId",
          "type": "uint256"
        }
      ],
      "name": "OrderRefunded",
      "type": "event"
    },
    {
      "inputs": [
        {
          "internalType": "string",
          "name": "_profile",
          "type": "string"
        }
      ],
      "name": "addCoverImage",
      "outputs": [],
      "stateMutability": "nonpayable",
      "type": "function"
    },
    {
      "inputs": [
        {
          "internalType": "string",
          "name": "_name",
          "type": "string"
        },
        {
          "internalType": "string",
          "name": "_category",
          "type": "string"
        },
        {
          "internalType": "string[]",
          "name": "_imageLink",
          "type": "string[]"
        },
        {
          "internalType": "string",
          "name": "_descLink",
          "type": "string"
        },
        {
          "internalType": "uint256",
          "name": "_price",
          "type": "uint256"
        },
        {
          "internalType": "string",
          "name": "_location",
          "type": "string"
        },
        {
          "internalType": "uint256",
          "name": "_maxQuantity",
          "type": "uint256"
        },
        {
          "internalType": "uint256",
          "name": "_refundTimeLimit",
          "type": "uint256"
        }
      ],
      "name": "addProduct",
      "outputs": [
        {
          "internalType": "uint256",
          "name": "",
          "type": "uint256"
        }
      ],
      "stateMutability": "nonpayable",
      "type": "function"
    },
    {
      "inputs": [
        {
          "internalType": "string",
          "name": "_profile",
          "type": "string"
        }
      ],
      "name": "addProfile",
      "outputs": [],
      "stateMutability": "nonpayable",
      "type": "function"
    },
    {
      "inputs": [
        {
          "internalType": "address",
          "name": "",
          "type": "address"
        }
      ],
      "name": "arbiters",
      "outputs": [
        {
          "internalType": "bool",
          "name": "",
          "type": "bool"
        }
      ],
      "stateMutability": "view",
      "type": "function"
    },
    {
      "inputs": [
        {
          "internalType": "uint256",
          "name": "_id",
          "type": "uint256"
        }
      ],
      "name": "cancelLive",
      "outputs": [
        {
          "internalType": "bool",
          "name": "",
          "type": "bool"
        }
      ],
      "stateMutability": "nonpayable",
      "type": "function"
    },
    {
      "inputs": [
        {
          "internalType": "address",
          "name": "pubkey",
          "type": "address"
        }
      ],
      "name": "checkUserExists",
      "outputs": [
        {
          "internalType": "bool",
          "name": "",
          "type": "bool"
        }
      ],
      "stateMutability": "view",
      "type": "function"
    },
    {
      "inputs": [
        {
          "internalType": "uint256",
          "name": "_orderId",
          "type": "uint256"
        },
        {
          "internalType": "bool",
          "name": "_success",
          "type": "bool"
        }
      ],
      "name": "confirmDelivery",
      "outputs": [],
      "stateMutability": "nonpayable",
      "type": "function"
    },
    {
      "inputs": [
        {
          "internalType": "string",
          "name": "_storeName",
          "type": "string"
        },
        {
          "internalType": "string",
          "name": "_category",
          "type": "string"
        },
        {
          "internalType": "string",
          "name": "_name",
          "type": "string"
        },
        {
          "internalType": "string",
          "name": "_lastName",
          "type": "string"
        },
        {
          "internalType": "string",
          "name": "_description",
          "type": "string"
        },
        {
          "internalType": "string",
          "name": "_location",
          "type": "string"
        }
      ],
      "name": "createAStore",
      "outputs": [],
      "stateMutability": "nonpayable",
      "type": "function"
    },
    {
      "inputs": [],
      "name": "getAllOrder",
      "outputs": [
        {
          "components": [
            {
              "internalType": "uint256",
              "name": "orderId",
              "type": "uint256"
            },
            {
              "internalType": "address",
              "name": "buyer",
              "type": "address"
            },
            {
              "internalType": "address",
              "name": "seller",
              "type": "address"
            },
            {
              "internalType": "uint256",
              "name": "price",
              "type": "uint256"
            },
            {
              "internalType": "enum Products.OrderStatus",
              "name": "status",
              "type": "uint8"
            },
            {
              "internalType": "bool",
              "name": "isPaid",
              "type": "bool"
            },
            {
              "internalType": "bool",
              "name": "isFulfilled",
              "type": "bool"
            },
            {
              "internalType": "bool",
              "name": "isRefunded",
              "type": "bool"
            },
            {
              "internalType": "contract Escrow",
              "name": "escrow",
              "type": "address"
            }
          ],
          "internalType": "struct Products.Order[]",
          "name": "",
          "type": "tuple[]"
        }
      ],
      "stateMutability": "view",
      "type": "function"
    },
    {
      "inputs": [],
      "name": "getLiveDetail",
      "outputs": [
        {
          "components": [
            {
              "internalType": "string",
              "name": "callId",
              "type": "string"
            },
            {
              "internalType": "string",
              "name": "storeName",
              "type": "string"
            },
            {
              "internalType": "address[]",
              "name": "participant",
              "type": "address[]"
            }
          ],
          "internalType": "struct Products.Live[]",
          "name": "",
          "type": "tuple[]"
        }
      ],
      "stateMutability": "view",
      "type": "function"
    },
    {
      "inputs": [
        {
          "internalType": "address",
          "name": "_owner",
          "type": "address"
        }
      ],
      "name": "getProductByAddress",
      "outputs": [
        {
          "components": [
            {
              "internalType": "string",
              "name": "name",
              "type": "string"
            },
            {
              "internalType": "string",
              "name": "category",
              "type": "string"
            },
            {
              "internalType": "string[]",
              "name": "imageLink",
              "type": "string[]"
            },
            {
              "internalType": "string",
              "name": "descLink",
              "type": "string"
            },
            {
              "internalType": "uint256",
              "name": "price",
              "type": "uint256"
            },
            {
              "internalType": "uint256",
              "name": "index",
              "type": "uint256"
            },
            {
              "internalType": "enum Products.OrderStatus",
              "name": "status",
              "type": "uint8"
            },
            {
              "internalType": "string",
              "name": "location",
              "type": "string"
            },
            {
              "internalType": "uint256",
              "name": "maxQuantity",
              "type": "uint256"
            },
            {
              "internalType": "address payable",
              "name": "owner",
              "type": "address"
            },
            {
              "internalType": "uint256",
              "name": "shippingFee",
              "type": "uint256"
            },
            {
              "internalType": "bool",
              "name": "sellerActive",
              "type": "bool"
            },
            {
              "internalType": "string",
              "name": "meetingId",
              "type": "string"
            }
          ],
          "internalType": "struct Products.Product[]",
          "name": "",
          "type": "tuple[]"
        }
      ],
      "stateMutability": "view",
      "type": "function"
    },
    {
      "inputs": [],
      "name": "getProductDetails",
      "outputs": [
        {
          "components": [
            {
              "internalType": "string",
              "name": "name",
              "type": "string"
            },
            {
              "internalType": "string",
              "name": "category",
              "type": "string"
            },
            {
              "internalType": "string[]",
              "name": "imageLink",
              "type": "string[]"
            },
            {
              "internalType": "string",
              "name": "descLink",
              "type": "string"
            },
            {
              "internalType": "uint256",
              "name": "price",
              "type": "uint256"
            },
            {
              "internalType": "uint256",
              "name": "index",
              "type": "uint256"
            },
            {
              "internalType": "enum Products.OrderStatus",
              "name": "status",
              "type": "uint8"
            },
            {
              "internalType": "string",
              "name": "location",
              "type": "string"
            },
            {
              "internalType": "uint256",
              "name": "maxQuantity",
              "type": "uint256"
            },
            {
              "internalType": "address payable",
              "name": "owner",
              "type": "address"
            },
            {
              "internalType": "uint256",
              "name": "shippingFee",
              "type": "uint256"
            },
            {
              "internalType": "bool",
              "name": "sellerActive",
              "type": "bool"
            },
            {
              "internalType": "string",
              "name": "meetingId",
              "type": "string"
            }
          ],
          "internalType": "struct Products.Product[]",
          "name": "",
          "type": "tuple[]"
        }
      ],
      "stateMutability": "view",
      "type": "function"
    },
    {
      "inputs": [],
      "name": "getStoreDetails",
      "outputs": [
        {
          "components": [
            {
              "internalType": "address",
              "name": "owner",
              "type": "address"
            },
            {
              "internalType": "string",
              "name": "storeName",
              "type": "string"
            },
            {
              "internalType": "bool",
              "name": "isSellerActive",
              "type": "bool"
            },
            {
              "internalType": "string",
              "name": "category",
              "type": "string"
            },
            {
              "internalType": "string",
              "name": "name",
              "type": "string"
            },
            {
              "internalType": "string",
              "name": "lastName",
              "type": "string"
            },
            {
              "internalType": "address[]",
              "name": "customer",
              "type": "address[]"
            },
            {
              "internalType": "string",
              "name": "description",
              "type": "string"
            },
            {
              "internalType": "string",
              "name": "meetingId",
              "type": "string"
            },
            {
              "internalType": "string",
              "name": "location",
              "type": "string"
            }
          ],
          "internalType": "struct Products.Store[]",
          "name": "",
          "type": "tuple[]"
        }
      ],
      "stateMutability": "view",
      "type": "function"
    },
    {
      "inputs": [
        {
          "internalType": "address",
          "name": "_owner",
          "type": "address"
        }
      ],
      "name": "isSellerActive",
      "outputs": [
        {
          "internalType": "bool",
          "name": "",
          "type": "bool"
        }
      ],
      "stateMutability": "view",
      "type": "function"
    },
    {
      "inputs": [],
      "name": "orderIdCounter",
      "outputs": [
        {
          "internalType": "uint256",
          "name": "",
          "type": "uint256"
        }
      ],
      "stateMutability": "view",
      "type": "function"
    },
    {
      "inputs": [
        {
          "internalType": "uint256",
          "name": "",
          "type": "uint256"
        }
      ],
      "name": "orders",
      "outputs": [
        {
          "internalType": "uint256",
          "name": "orderId",
          "type": "uint256"
        },
        {
          "internalType": "address",
          "name": "buyer",
          "type": "address"
        },
        {
          "internalType": "address",
          "name": "seller",
          "type": "address"
        },
        {
          "internalType": "uint256",
          "name": "price",
          "type": "uint256"
        },
        {
          "internalType": "enum Products.OrderStatus",
          "name": "status",
          "type": "uint8"
        },
        {
          "internalType": "bool",
          "name": "isPaid",
          "type": "bool"
        },
        {
          "internalType": "bool",
          "name": "isFulfilled",
          "type": "bool"
        },
        {
          "internalType": "bool",
          "name": "isRefunded",
          "type": "bool"
        },
        {
          "internalType": "contract Escrow",
          "name": "escrow",
          "type": "address"
        }
      ],
      "stateMutability": "view",
      "type": "function"
    },
    {
      "inputs": [
        {
          "internalType": "uint256",
          "name": "id",
          "type": "uint256"
        },
        {
          "internalType": "uint256",
          "name": "_price",
          "type": "uint256"
        }
      ],
      "name": "placeOrder",
      "outputs": [],
      "stateMutability": "payable",
      "type": "function"
    },
    {
      "inputs": [
        {
          "internalType": "uint256",
          "name": "_orderId",
          "type": "uint256"
        }
      ],
      "name": "refundOrder",
      "outputs": [],
      "stateMutability": "nonpayable",
      "type": "function"
    },
    {
      "inputs": [
        {
          "internalType": "string",
          "name": "_callId",
          "type": "string"
        }
      ],
      "name": "startStream",
      "outputs": [
        {
          "internalType": "bool",
          "name": "",
          "type": "bool"
        }
      ],
      "stateMutability": "nonpayable",
      "type": "function"
    }
  ],
  "bytecode": "0x608060405234801561001057600080fd5b506162f680620000216000396000f3fe6080604052600436106101145760003560e01c8063843f61e2116100a0578063be37442311610064578063be374423146103e2578063c018c4571461040d578063e35f968014610436578063e57e4a9414610473578063fe04eb2d1461049e57610114565b8063843f61e2146102f2578063870c2fcb1461030e57806393cd5a1f14610337578063a3fa140e14610360578063a85c38ef1461039d57610114565b806323bc839b116100e757806323bc839b146101e55780633dfbbad4146102105780635d39c0711461023b5780635f0d382a146102785780637bf2bb10146102b557610114565b806304ef0781146101195780630c717b9e146101425780630c7d1b391461016b578063133f50f5146101a8575b600080fd5b34801561012557600080fd5b50610140600480360381019061013b91906133b9565b6104c9565b005b34801561014e57600080fd5b506101696004803603810190610164919061353f565b6107ba565b005b34801561017757600080fd5b50610192600480360381019061018d91906135e6565b610813565b60405161019f9190613622565b60405180910390f35b3480156101b457600080fd5b506101cf60048036038101906101ca91906135e6565b61086c565b6040516101dc9190613622565b60405180910390f35b3480156101f157600080fd5b506101fa6108c6565b6040516102079190613a32565b60405180910390f35b34801561021c57600080fd5b50610225610dad565b6040516102329190613c29565b60405180910390f35b34801561024757600080fd5b50610262600480360381019061025d919061353f565b610faf565b60405161026f9190613622565b60405180910390f35b34801561028457600080fd5b5061029f600480360381019061029a91906135e6565b611225565b6040516102ac9190613a32565b60405180910390f35b3480156102c157600080fd5b506102dc60048036038101906102d791906135e6565b61174b565b6040516102e99190613622565b60405180910390f35b61030c60048036038101906103079190613c4b565b61176b565b005b34801561031a57600080fd5b506103356004803603810190610330919061353f565b611ed8565b005b34801561034357600080fd5b5061035e60048036038101906103599190613c8b565b611f31565b005b34801561036c57600080fd5b5061038760048036038101906103829190613ea6565b6121b5565b6040516103949190613ff7565b60405180910390f35b3480156103a957600080fd5b506103c460048036038101906103bf9190614012565b61256c565b6040516103d99998979695949392919061406c565b60405180910390f35b3480156103ee57600080fd5b506103f761264e565b6040516104049190613ff7565b60405180910390f35b34801561041957600080fd5b50610434600480360381019061042f9190614012565b612654565b005b34801561044257600080fd5b5061045d60048036038101906104589190614012565b6128bd565b60405161046a9190613622565b60405180910390f35b34801561047f57600080fd5b50610488612a12565b60405161049591906142c8565b60405180910390f35b3480156104aa57600080fd5b506104b3612c23565b6040516104c091906144b7565b60405180910390f35b816004600082815260200190815260200160002060010160009054906101000a900473ffffffffffffffffffffffffffffffffffffffff1673ffffffffffffffffffffffffffffffffffffffff163373ffffffffffffffffffffffffffffffffffffffff161461056e576040517f08c379a00000000000000000000000000000000000000000000000000000000081526004016105659061455c565b60405180910390fd5b60006004600085815260200190815260200160002090508060040160019054906101000a900460ff166105d6576040517f08c379a00000000000000000000000000000000000000000000000000000000081526004016105cd906145c8565b60405180910390fd5b600260048111156105ea576105e96137b9565b5b8160040160009054906101000a900460ff16600481111561060e5761060d6137b9565b5b1461064e576040517f08c379a000000000000000000000000000000000000000000000000000000000815260040161064590614634565b60405180910390fd5b8060040160049054906101000a900473ffffffffffffffffffffffffffffffffffffffff1673ffffffffffffffffffffffffffffffffffffffff1663fa0af12a846040518263ffffffff1660e01b81526004016106ab9190613622565b600060405180830381600087803b1580156106c557600080fd5b505af11580156106d9573d6000803e3d6000fd5b5050505082156107155760038160040160006101000a81548160ff0219169083600481111561070b5761070a6137b9565b5b0217905550610760565b60048160040160006101000a81548160ff0219169083600481111561073d5761073c6137b9565b5b021790555060018160040160036101000a81548160ff0219169083151502179055505b60018160040160026101000a81548160ff0219169083151502179055507fe21fe02c1589242b30be2057f54fd54b7ddc463695d19ffdb54f9ebb0584f24a846040516107ac9190613ff7565b60405180910390a150505050565b6000600260003373ffffffffffffffffffffffffffffffffffffffff1673ffffffffffffffffffffffffffffffffffffffff16815260200190815260200160002090508181600001908161080e9190614856565b505050565b6000600960008373ffffffffffffffffffffffffffffffffffffffff1673ffffffffffffffffffffffffffffffffffffffff16815260200190815260200160002060020160009054906101000a900460ff169050919050565b600080600960008473ffffffffffffffffffffffffffffffffffffffff1673ffffffffffffffffffffffffffffffffffffffff16815260200190815260200160002060010180546108bc90614683565b9050119050919050565b6060600c805480602002602001604051908101604052809291908181526020016000905b82821015610da457838290600052602060002090600d0201604051806101a001604052908160008201805461091e90614683565b80601f016020809104026020016040519081016040528092919081815260200182805461094a90614683565b80156109975780601f1061096c57610100808354040283529160200191610997565b820191906000526020600020905b81548152906001019060200180831161097a57829003601f168201915b505050505081526020016001820180546109b090614683565b80601f01602080910402602001604051908101604052809291908181526020018280546109dc90614683565b8015610a295780601f106109fe57610100808354040283529160200191610a29565b820191906000526020600020905b815481529060010190602001808311610a0c57829003601f168201915b5050505050815260200160028201805480602002602001604051908101604052809291908181526020016000905b82821015610b03578382906000526020600020018054610a7690614683565b80601f0160208091040260200160405190810160405280929190818152602001828054610aa290614683565b8015610aef5780601f10610ac457610100808354040283529160200191610aef565b820191906000526020600020905b815481529060010190602001808311610ad257829003601f168201915b505050505081526020019060010190610a57565b505050508152602001600382018054610b1b90614683565b80601f0160208091040260200160405190810160405280929190818152602001828054610b4790614683565b8015610b945780601f10610b6957610100808354040283529160200191610b94565b820191906000526020600020905b815481529060010190602001808311610b7757829003601f168201915b5050505050815260200160048201548152602001600582015481526020016006820160009054906101000a900460ff166004811115610bd657610bd56137b9565b5b6004811115610be857610be76137b9565b5b8152602001600782018054610bfc90614683565b80601f0160208091040260200160405190810160405280929190818152602001828054610c2890614683565b8015610c755780601f10610c4a57610100808354040283529160200191610c75565b820191906000526020600020905b815481529060010190602001808311610c5857829003601f168201915b50505050508152602001600882015481526020016009820160009054906101000a900473ffffffffffffffffffffffffffffffffffffffff1673ffffffffffffffffffffffffffffffffffffffff1673ffffffffffffffffffffffffffffffffffffffff168152602001600a8201548152602001600b820160009054906101000a900460ff16151515158152602001600c82018054610d1390614683565b80601f0160208091040260200160405190810160405280929190818152602001828054610d3f90614683565b8015610d8c5780601f10610d6157610100808354040283529160200191610d8c565b820191906000526020600020905b815481529060010190602001808311610d6f57829003601f168201915b505050505081525050815260200190600101906108ea565b50505050905090565b6060600f805480602002602001604051908101604052809291908181526020016000905b82821015610fa6578382906000526020600020906005020160405180610120016040529081600082015481526020016001820160009054906101000a900473ffffffffffffffffffffffffffffffffffffffff1673ffffffffffffffffffffffffffffffffffffffff1673ffffffffffffffffffffffffffffffffffffffff1681526020016002820160009054906101000a900473ffffffffffffffffffffffffffffffffffffffff1673ffffffffffffffffffffffffffffffffffffffff1673ffffffffffffffffffffffffffffffffffffffff168152602001600382015481526020016004820160009054906101000a900460ff166004811115610eda57610ed96137b9565b5b6004811115610eec57610eeb6137b9565b5b81526020016004820160019054906101000a900460ff161515151581526020016004820160029054906101000a900460ff161515151581526020016004820160039054906101000a900460ff161515151581526020016004820160049054906101000a900473ffffffffffffffffffffffffffffffffffffffff1673ffffffffffffffffffffffffffffffffffffffff1673ffffffffffffffffffffffffffffffffffffffff168152505081526020019060010190610dd1565b50505050905090565b6000610fba3361086c565b610ff9576040517f08c379a0000000000000000000000000000000000000000000000000000000008152600401610ff090614974565b60405180910390fd5b600060036000600b5481526020019081526020016000209050828160000190816110239190614856565b50600960003373ffffffffffffffffffffffffffffffffffffffff1673ffffffffffffffffffffffffffffffffffffffff16815260200190815260200160002060010181600101908161107691906149bf565b506001600960003373ffffffffffffffffffffffffffffffffffffffff1673ffffffffffffffffffffffffffffffffffffffff16815260200190815260200160002060020160006101000a81548160ff02191690831515021790555082600960003373ffffffffffffffffffffffffffffffffffffffff1673ffffffffffffffffffffffffffffffffffffffff16815260200190815260200160002060080190816111219190614856565b506001600860003373ffffffffffffffffffffffffffffffffffffffff1673ffffffffffffffffffffffffffffffffffffffff168152602001908152602001600020600b0160006101000a81548160ff02191690831515021790555082600860003373ffffffffffffffffffffffffffffffffffffffff1673ffffffffffffffffffffffffffffffffffffffff168152602001908152602001600020600c0190816111cc9190614856565b50600960003373ffffffffffffffffffffffffffffffffffffffff1673ffffffffffffffffffffffffffffffffffffffff16815260200190815260200160002060020160009054906101000a900460ff16915050919050565b6060600760008373ffffffffffffffffffffffffffffffffffffffff1673ffffffffffffffffffffffffffffffffffffffff168152602001908152602001600020805480602002602001604051908101604052809291908181526020016000905b8282101561174057838290600052602060002090600d0201604051806101a00160405290816000820180546112ba90614683565b80601f01602080910402602001604051908101604052809291908181526020018280546112e690614683565b80156113335780601f1061130857610100808354040283529160200191611333565b820191906000526020600020905b81548152906001019060200180831161131657829003601f168201915b5050505050815260200160018201805461134c90614683565b80601f016020809104026020016040519081016040528092919081815260200182805461137890614683565b80156113c55780601f1061139a576101008083540402835291602001916113c5565b820191906000526020600020905b8154815290600101906020018083116113a857829003601f168201915b5050505050815260200160028201805480602002602001604051908101604052809291908181526020016000905b8282101561149f57838290600052602060002001805461141290614683565b80601f016020809104026020016040519081016040528092919081815260200182805461143e90614683565b801561148b5780601f106114605761010080835404028352916020019161148b565b820191906000526020600020905b81548152906001019060200180831161146e57829003601f168201915b5050505050815260200190600101906113f3565b5050505081526020016003820180546114b790614683565b80601f01602080910402602001604051908101604052809291908181526020018280546114e390614683565b80156115305780601f1061150557610100808354040283529160200191611530565b820191906000526020600020905b81548152906001019060200180831161151357829003601f168201915b5050505050815260200160048201548152602001600582015481526020016006820160009054906101000a900460ff166004811115611572576115716137b9565b5b6004811115611584576115836137b9565b5b815260200160078201805461159890614683565b80601f01602080910402602001604051908101604052809291908181526020018280546115c490614683565b80156116115780601f106115e657610100808354040283529160200191611611565b820191906000526020600020905b8154815290600101906020018083116115f457829003601f168201915b50505050508152602001600882015481526020016009820160009054906101000a900473ffffffffffffffffffffffffffffffffffffffff1673ffffffffffffffffffffffffffffffffffffffff1673ffffffffffffffffffffffffffffffffffffffff168152602001600a8201548152602001600b820160009054906101000a900460ff16151515158152602001600c820180546116af90614683565b80601f01602080910402602001604051908101604052809291908181526020018280546116db90614683565b80156117285780601f106116fd57610100808354040283529160200191611728565b820191906000526020600020905b81548152906001019060200180831161170b57829003601f168201915b50505050508152505081526020019060010190611286565b505050509050919050565b60056020528060005260406000206000915054906101000a900460ff1681565b6000600460006001548152602001908152602001600020905060066000848152602001908152602001600020600401543410156117dd576040517f08c379a00000000000000000000000000000000000000000000000000000000081526004016117d490614af3565b60405180910390fd5b8060040160019054906101000a900460ff161561182f576040517f08c379a000000000000000000000000000000000000000000000000000000000815260040161182690614b5f565b60405180910390fd5b60006004811115611843576118426137b9565b5b6006600085815260200190815260200160002060060160009054906101000a900460ff166004811115611879576118786137b9565b5b146118b9576040517f08c379a00000000000000000000000000000000000000000000000000000000081526004016118b090614bcb565b60405180910390fd5b60006006600085815260200190815260200160002060090160009054906101000a900473ffffffffffffffffffffffffffffffffffffffff169050600060405161190290613180565b604051809103906000f08015801561191e573d6000803e3d6000fd5b5090508073ffffffffffffffffffffffffffffffffffffffff16631794bb3c83738d45ea72697c5f395ee1509cb39067cb977d9cb6876040518463ffffffff1660e01b815260040161197293929190614bfa565b600060405180830381600087803b15801561198c57600080fd5b505af11580156119a0573d6000803e3d6000fd5b505050508073ffffffffffffffffffffffffffffffffffffffff1663d0e30db0346040518263ffffffff1660e01b81526004016000604051808303818588803b1580156119ec57600080fd5b505af1158015611a00573d6000803e3d6000fd5b505050505060016000815480929190611a1890614c60565b91905055506001548360000181905550338360010160006101000a81548173ffffffffffffffffffffffffffffffffffffffff021916908373ffffffffffffffffffffffffffffffffffffffff160217905550818360020160006101000a81548173ffffffffffffffffffffffffffffffffffffffff021916908373ffffffffffffffffffffffffffffffffffffffff16021790555083836003018190555060018360040160006101000a81548160ff02191690836004811115611adf57611ade6137b9565b5b021790555060008360040160016101000a81548160ff02191690831515021790555060008360040160026101000a81548160ff02191690831515021790555060008360040160036101000a81548160ff021916908315150217905550808360040160046101000a81548173ffffffffffffffffffffffffffffffffffffffff021916908373ffffffffffffffffffffffffffffffffffffffff160217905550600f839080600181540180825580915050600190039060005260206000209060050201600090919091909150600082015481600001556001820160009054906101000a900473ffffffffffffffffffffffffffffffffffffffff168160010160006101000a81548173ffffffffffffffffffffffffffffffffffffffff021916908373ffffffffffffffffffffffffffffffffffffffff1602179055506002820160009054906101000a900473ffffffffffffffffffffffffffffffffffffffff168160020160006101000a81548173ffffffffffffffffffffffffffffffffffffffff021916908373ffffffffffffffffffffffffffffffffffffffff160217905550600382015481600301556004820160009054906101000a900460ff168160040160006101000a81548160ff02191690836004811115611cc457611cc36137b9565b5b02179055506004820160019054906101000a900460ff168160040160016101000a81548160ff0219169083151502179055506004820160029054906101000a900460ff168160040160026101000a81548160ff0219169083151502179055506004820160039054906101000a900460ff168160040160036101000a81548160ff0219169083151502179055506004820160049054906101000a900473ffffffffffffffffffffffffffffffffffffffff168160040160046101000a81548173ffffffffffffffffffffffffffffffffffffffff021916908373ffffffffffffffffffffffffffffffffffffffff1602179055505050600960006006600088815260200190815260200160002060090160009054906101000a900473ffffffffffffffffffffffffffffffffffffffff1673ffffffffffffffffffffffffffffffffffffffff1673ffffffffffffffffffffffffffffffffffffffff168152602001908152602001600020600601339080600181540180825580915050600190039060005260206000200160009091909190916101000a81548173ffffffffffffffffffffffffffffffffffffffff021916908373ffffffffffffffffffffffffffffffffffffffff1602179055507ff9e17940e547201709f9aaacdec8ab3566601c60d8f5affb54f74b79b0b50b13600154338487604051611ec99493929190614cc9565b60405180910390a15050505050565b6000600260003373ffffffffffffffffffffffffffffffffffffffff1673ffffffffffffffffffffffffffffffffffffffff168152602001908152602001600020905081816000019081611f2c9190614856565b505050565b6000600960003373ffffffffffffffffffffffffffffffffffffffff1673ffffffffffffffffffffffffffffffffffffffff168152602001908152602001600020905086816001019081611f859190614856565b50338160000160006101000a81548173ffffffffffffffffffffffffffffffffffffffff021916908373ffffffffffffffffffffffffffffffffffffffff16021790555084816004019081611fda9190614856565b5085816003019081611fec9190614856565b5083816005019081611ffe9190614856565b50828160070190816120109190614856565b5060008160020160006101000a81548160ff0219169083151502179055508181600901908161203f9190614856565b50600d8190806001815401808255809150506001900390600052602060002090600a02016000909190919091506000820160009054906101000a900473ffffffffffffffffffffffffffffffffffffffff168160000160006101000a81548173ffffffffffffffffffffffffffffffffffffffff021916908373ffffffffffffffffffffffffffffffffffffffff160217905550600182018160010190816120e79190614d24565b506002820160009054906101000a900460ff168160020160006101000a81548160ff021916908315150217905550600382018160030190816121299190614d24565b506004820181600401908161213e9190614d24565b50600582018160050190816121539190614d24565b50600682018160060190805461216a92919061318d565b506007820181600701908161217f9190614d24565b50600882018160080190816121949190614d24565b50600982018160090190816121a99190614d24565b50505050505050505050565b60006121c03361086c565b6121ff576040517f08c379a00000000000000000000000000000000000000000000000000000000081526004016121f690614974565b60405180910390fd5b600073ffffffffffffffffffffffffffffffffffffffff163373ffffffffffffffffffffffffffffffffffffffff160361226e576040517f08c379a000000000000000000000000000000000000000000000000000000000815260040161226590614e58565b60405180910390fd5b600a600081548092919061228190614c60565b9190505550600060066000600a5481526020019081526020016000209050898160000190816122b09190614856565b50338160090160006101000a81548173ffffffffffffffffffffffffffffffffffffffff021916908373ffffffffffffffffffffffffffffffffffffffff160217905550888160010190816123059190614856565b50868160030190816123179190614856565b50878160020190805190602001906123309291906131df565b50600a5481600501819055508481600701908161234d9190614856565b5083816008018190555085816004018190555060008160060160006101000a81548160ff02191690836004811115612388576123876137b9565b5b02179055508281600a0181905550600081600b0160006101000a81548160ff021916908315150217905550600c8190806001815401808255809150506001900390600052602060002090600d0201600090919091909150600082018160000190816123f39190614d24565b50600182018160010190816124089190614d24565b50600282018160020190805461241f929190613238565b50600382018160030190816124349190614d24565b5060048201548160040155600582015481600501556006820160009054906101000a900460ff168160060160006101000a81548160ff02191690836004811115612481576124806137b9565b5b02179055506007820181600701908161249a9190614d24565b50600882015481600801556009820160009054906101000a900473ffffffffffffffffffffffffffffffffffffffff168160090160006101000a81548173ffffffffffffffffffffffffffffffffffffffff021916908373ffffffffffffffffffffffffffffffffffffffff160217905550600a82015481600a0155600b820160009054906101000a900460ff1681600b0160006101000a81548160ff021916908315150217905550600c820181600c0190816125579190614d24565b505050600a5491505098975050505050505050565b60046020528060005260406000206000915090508060000154908060010160009054906101000a900473ffffffffffffffffffffffffffffffffffffffff16908060020160009054906101000a900473ffffffffffffffffffffffffffffffffffffffff16908060030154908060040160009054906101000a900460ff16908060040160019054906101000a900460ff16908060040160029054906101000a900460ff16908060040160039054906101000a900460ff16908060040160049054906101000a900473ffffffffffffffffffffffffffffffffffffffff16905089565b60015481565b806004600082815260200190815260200160002060020160009054906101000a900473ffffffffffffffffffffffffffffffffffffffff1673ffffffffffffffffffffffffffffffffffffffff163373ffffffffffffffffffffffffffffffffffffffff16146126f9576040517f08c379a00000000000000000000000000000000000000000000000000000000081526004016126f090614eea565b60405180910390fd5b60006004600084815260200190815260200160002090508060040160019054906101000a900460ff16612761576040517f08c379a0000000000000000000000000000000000000000000000000000000008152600401612758906145c8565b60405180910390fd5b8060040160029054906101000a900460ff16156127b3576040517f08c379a00000000000000000000000000000000000000000000000000000000081526004016127aa90614f7c565b60405180910390fd5b8060040160049054906101000a900473ffffffffffffffffffffffffffffffffffffffff1673ffffffffffffffffffffffffffffffffffffffff1663e8a61cc86040518163ffffffff1660e01b8152600401600060405180830381600087803b15801561281f57600080fd5b505af1158015612833573d6000803e3d6000fd5b5050505060048160040160006101000a81548160ff0219169083600481111561285f5761285e6137b9565b5b021790555060018160040160036101000a81548160ff0219169083151502179055507f303a31648d19f17852cf82657162c4bdd4a06ab3f36f1e7ae1118f4ca6473e11836040516128b09190613ff7565b60405180910390a1505050565b600060036000838152602001908152602001600020600080820160006128e39190613295565b6001820160006128f39190613295565b60028201600061290391906132d5565b50506000600960003373ffffffffffffffffffffffffffffffffffffffff1673ffffffffffffffffffffffffffffffffffffffff16815260200190815260200160002060020160006101000a81548160ff0219169083151502179055506000600860003373ffffffffffffffffffffffffffffffffffffffff1673ffffffffffffffffffffffffffffffffffffffff168152602001908152602001600020600b0160006101000a81548160ff021916908315150217905550600960003373ffffffffffffffffffffffffffffffffffffffff1673ffffffffffffffffffffffffffffffffffffffff16815260200190815260200160002060020160009054906101000a900460ff169050919050565b6060600e805480602002602001604051908101604052809291908181526020016000905b82821015612c1a5783829060005260206000209060030201604051806060016040529081600082018054612a6990614683565b80601f0160208091040260200160405190810160405280929190818152602001828054612a9590614683565b8015612ae25780601f10612ab757610100808354040283529160200191612ae2565b820191906000526020600020905b815481529060010190602001808311612ac557829003601f168201915b50505050508152602001600182018054612afb90614683565b80601f0160208091040260200160405190810160405280929190818152602001828054612b2790614683565b8015612b745780601f10612b4957610100808354040283529160200191612b74565b820191906000526020600020905b815481529060010190602001808311612b5757829003601f168201915b5050505050815260200160028201805480602002602001604051908101604052809291908181526020018280548015612c0257602002820191906000526020600020905b8160009054906101000a900473ffffffffffffffffffffffffffffffffffffffff1673ffffffffffffffffffffffffffffffffffffffff1681526020019060010190808311612bb8575b50505050508152505081526020019060010190612a36565b50505050905090565b6060600d805480602002602001604051908101604052809291908181526020016000905b8282101561317757838290600052602060002090600a0201604051806101400160405290816000820160009054906101000a900473ffffffffffffffffffffffffffffffffffffffff1673ffffffffffffffffffffffffffffffffffffffff1673ffffffffffffffffffffffffffffffffffffffff168152602001600182018054612cd190614683565b80601f0160208091040260200160405190810160405280929190818152602001828054612cfd90614683565b8015612d4a5780601f10612d1f57610100808354040283529160200191612d4a565b820191906000526020600020905b815481529060010190602001808311612d2d57829003601f168201915b505050505081526020016002820160009054906101000a900460ff16151515158152602001600382018054612d7e90614683565b80601f0160208091040260200160405190810160405280929190818152602001828054612daa90614683565b8015612df75780601f10612dcc57610100808354040283529160200191612df7565b820191906000526020600020905b815481529060010190602001808311612dda57829003601f168201915b50505050508152602001600482018054612e1090614683565b80601f0160208091040260200160405190810160405280929190818152602001828054612e3c90614683565b8015612e895780601f10612e5e57610100808354040283529160200191612e89565b820191906000526020600020905b815481529060010190602001808311612e6c57829003601f168201915b50505050508152602001600582018054612ea290614683565b80601f0160208091040260200160405190810160405280929190818152602001828054612ece90614683565b8015612f1b5780601f10612ef057610100808354040283529160200191612f1b565b820191906000526020600020905b815481529060010190602001808311612efe57829003601f168201915b5050505050815260200160068201805480602002602001604051908101604052809291908181526020018280548015612fa957602002820191906000526020600020905b8160009054906101000a900473ffffffffffffffffffffffffffffffffffffffff1673ffffffffffffffffffffffffffffffffffffffff1681526020019060010190808311612f5f575b50505050508152602001600782018054612fc290614683565b80601f0160208091040260200160405190810160405280929190818152602001828054612fee90614683565b801561303b5780601f106130105761010080835404028352916020019161303b565b820191906000526020600020905b81548152906001019060200180831161301e57829003601f168201915b5050505050815260200160088201805461305490614683565b80601f016020809104026020016040519081016040528092919081815260200182805461308090614683565b80156130cd5780601f106130a2576101008083540402835291602001916130cd565b820191906000526020600020905b8154815290600101906020018083116130b057829003601f168201915b505050505081526020016009820180546130e690614683565b80601f016020809104026020016040519081016040528092919081815260200182805461311290614683565b801561315f5780601f106131345761010080835404028352916020019161315f565b820191906000526020600020905b81548152906001019060200180831161314257829003601f168201915b50505050508152505081526020019060010190612c47565b50505050905090565b61132480614f9d83390190565b8280548282559060005260206000209081019282156131ce5760005260206000209182015b828111156131cd5782548255916001019190600101906131b2565b5b5090506131db91906132f6565b5090565b828054828255906000526020600020908101928215613227579160200282015b828111156132265782518290816132169190614856565b50916020019190600101906131ff565b5b5090506132349190613313565b5090565b8280548282559060005260206000209081019282156132845760005260206000209182015b8281111561328357828290816132739190614d24565b509160010191906001019061325d565b5b5090506132919190613313565b5090565b5080546132a190614683565b6000825580601f106132b357506132d2565b601f0160209004906000526020600020908101906132d191906132f6565b5b50565b50805460008255906000526020600020908101906132f391906132f6565b50565b5b8082111561330f5760008160009055506001016132f7565b5090565b5b80821115613333576000818161332a9190613295565b50600101613314565b5090565b6000604051905090565b600080fd5b600080fd5b6000819050919050565b61335e8161334b565b811461336957600080fd5b50565b60008135905061337b81613355565b92915050565b60008115159050919050565b61339681613381565b81146133a157600080fd5b50565b6000813590506133b38161338d565b92915050565b600080604083850312156133d0576133cf613341565b5b60006133de8582860161336c565b92505060206133ef858286016133a4565b9150509250929050565b600080fd5b600080fd5b6000601f19601f8301169050919050565b7f4e487b7100000000000000000000000000000000000000000000000000000000600052604160045260246000fd5b61344c82613403565b810181811067ffffffffffffffff8211171561346b5761346a613414565b5b80604052505050565b600061347e613337565b905061348a8282613443565b919050565b600067ffffffffffffffff8211156134aa576134a9613414565b5b6134b382613403565b9050602081019050919050565b82818337600083830152505050565b60006134e26134dd8461348f565b613474565b9050828152602081018484840111156134fe576134fd6133fe565b5b6135098482856134c0565b509392505050565b600082601f830112613526576135256133f9565b5b81356135368482602086016134cf565b91505092915050565b60006020828403121561355557613554613341565b5b600082013567ffffffffffffffff81111561357357613572613346565b5b61357f84828501613511565b91505092915050565b600073ffffffffffffffffffffffffffffffffffffffff82169050919050565b60006135b382613588565b9050919050565b6135c3816135a8565b81146135ce57600080fd5b50565b6000813590506135e0816135ba565b92915050565b6000602082840312156135fc576135fb613341565b5b600061360a848285016135d1565b91505092915050565b61361c81613381565b82525050565b60006020820190506136376000830184613613565b92915050565b600081519050919050565b600082825260208201905092915050565b6000819050602082019050919050565b600081519050919050565b600082825260208201905092915050565b60005b838110156136a3578082015181840152602081019050613688565b60008484015250505050565b60006136ba82613669565b6136c48185613674565b93506136d4818560208601613685565b6136dd81613403565b840191505092915050565b600081519050919050565b600082825260208201905092915050565b6000819050602082019050919050565b600061372083836136af565b905092915050565b6000602082019050919050565b6000613740826136e8565b61374a81856136f3565b93508360208202850161375c85613704565b8060005b8581101561379857848403895281516137798582613714565b945061378483613728565b925060208a01995050600181019050613760565b50829750879550505050505092915050565b6137b38161334b565b82525050565b7f4e487b7100000000000000000000000000000000000000000000000000000000600052602160045260246000fd5b600581106137f9576137f86137b9565b5b50565b600081905061380a826137e8565b919050565b600061381a826137fc565b9050919050565b61382a8161380f565b82525050565b600061383b82613588565b9050919050565b61384b81613830565b82525050565b61385a81613381565b82525050565b60006101a083016000830151848203600086015261387e82826136af565b9150506020830151848203602086015261389882826136af565b915050604083015184820360408601526138b28282613735565b915050606083015184820360608601526138cc82826136af565b91505060808301516138e160808601826137aa565b5060a08301516138f460a08601826137aa565b5060c083015161390760c0860182613821565b5060e083015184820360e086015261391f82826136af565b9150506101008301516139366101008601826137aa565b5061012083015161394b610120860182613842565b506101408301516139606101408601826137aa565b50610160830151613975610160860182613851565b5061018083015184820361018086015261398f82826136af565b9150508091505092915050565b60006139a88383613860565b905092915050565b6000602082019050919050565b60006139c88261363d565b6139d28185613648565b9350836020820285016139e485613659565b8060005b85811015613a205784840389528151613a01858261399c565b9450613a0c836139b0565b925060208a019950506001810190506139e8565b50829750879550505050505092915050565b60006020820190508181036000830152613a4c81846139bd565b905092915050565b600081519050919050565b600082825260208201905092915050565b6000819050602082019050919050565b613a89816135a8565b82525050565b6000819050919050565b6000613ab4613aaf613aaa84613588565b613a8f565b613588565b9050919050565b6000613ac682613a99565b9050919050565b6000613ad882613abb565b9050919050565b613ae881613acd565b82525050565b61012082016000820151613b0560008501826137aa565b506020820151613b186020850182613a80565b506040820151613b2b6040850182613a80565b506060820151613b3e60608501826137aa565b506080820151613b516080850182613821565b5060a0820151613b6460a0850182613851565b5060c0820151613b7760c0850182613851565b5060e0820151613b8a60e0850182613851565b50610100820151613b9f610100850182613adf565b50505050565b6000613bb18383613aee565b6101208301905092915050565b6000602082019050919050565b6000613bd682613a54565b613be08185613a5f565b9350613beb83613a70565b8060005b83811015613c1c578151613c038882613ba5565b9750613c0e83613bbe565b925050600181019050613bef565b5085935050505092915050565b60006020820190508181036000830152613c438184613bcb565b905092915050565b60008060408385031215613c6257613c61613341565b5b6000613c708582860161336c565b9250506020613c818582860161336c565b9150509250929050565b60008060008060008060c08789031215613ca857613ca7613341565b5b600087013567ffffffffffffffff811115613cc657613cc5613346565b5b613cd289828a01613511565b965050602087013567ffffffffffffffff811115613cf357613cf2613346565b5b613cff89828a01613511565b955050604087013567ffffffffffffffff811115613d2057613d1f613346565b5b613d2c89828a01613511565b945050606087013567ffffffffffffffff811115613d4d57613d4c613346565b5b613d5989828a01613511565b935050608087013567ffffffffffffffff811115613d7a57613d79613346565b5b613d8689828a01613511565b92505060a087013567ffffffffffffffff811115613da757613da6613346565b5b613db389828a01613511565b9150509295509295509295565b600067ffffffffffffffff821115613ddb57613dda613414565b5b602082029050602081019050919050565b600080fd5b6000613e04613dff84613dc0565b613474565b90508083825260208201905060208402830185811115613e2757613e26613dec565b5b835b81811015613e6e57803567ffffffffffffffff811115613e4c57613e4b6133f9565b5b808601613e598982613511565b85526020850194505050602081019050613e29565b5050509392505050565b600082601f830112613e8d57613e8c6133f9565b5b8135613e9d848260208601613df1565b91505092915050565b600080600080600080600080610100898b031215613ec757613ec6613341565b5b600089013567ffffffffffffffff811115613ee557613ee4613346565b5b613ef18b828c01613511565b985050602089013567ffffffffffffffff811115613f1257613f11613346565b5b613f1e8b828c01613511565b975050604089013567ffffffffffffffff811115613f3f57613f3e613346565b5b613f4b8b828c01613e78565b965050606089013567ffffffffffffffff811115613f6c57613f6b613346565b5b613f788b828c01613511565b9550506080613f898b828c0161336c565b94505060a089013567ffffffffffffffff811115613faa57613fa9613346565b5b613fb68b828c01613511565b93505060c0613fc78b828c0161336c565b92505060e0613fd88b828c0161336c565b9150509295985092959890939650565b613ff18161334b565b82525050565b600060208201905061400c6000830184613fe8565b92915050565b60006020828403121561402857614027613341565b5b60006140368482850161336c565b91505092915050565b614048816135a8565b82525050565b6140578161380f565b82525050565b61406681613acd565b82525050565b600061012082019050614082600083018c613fe8565b61408f602083018b61403f565b61409c604083018a61403f565b6140a96060830189613fe8565b6140b6608083018861404e565b6140c360a0830187613613565b6140d060c0830186613613565b6140dd60e0830185613613565b6140eb61010083018461405d565b9a9950505050505050505050565b600081519050919050565b600082825260208201905092915050565b6000819050602082019050919050565b600081519050919050565b600082825260208201905092915050565b6000819050602082019050919050565b600061415d8383613a80565b60208301905092915050565b6000602082019050919050565b600061418182614125565b61418b8185614130565b935061419683614141565b8060005b838110156141c75781516141ae8882614151565b97506141b983614169565b92505060018101905061419a565b5085935050505092915050565b600060608301600083015184820360008601526141f182826136af565b9150506020830151848203602086015261420b82826136af565b915050604083015184820360408601526142258282614176565b9150508091505092915050565b600061423e83836141d4565b905092915050565b6000602082019050919050565b600061425e826140f9565b6142688185614104565b93508360208202850161427a85614115565b8060005b858110156142b657848403895281516142978582614232565b94506142a283614246565b925060208a0199505060018101905061427e565b50829750879550505050505092915050565b600060208201905081810360008301526142e28184614253565b905092915050565b600081519050919050565b600082825260208201905092915050565b6000819050602082019050919050565b60006101408301600083015161432f6000860182613a80565b506020830151848203602086015261434782826136af565b915050604083015161435c6040860182613851565b506060830151848203606086015261437482826136af565b9150506080830151848203608086015261438e82826136af565b91505060a083015184820360a08601526143a882826136af565b91505060c083015184820360c08601526143c28282614176565b91505060e083015184820360e08601526143dc82826136af565b9150506101008301518482036101008601526143f882826136af565b91505061012083015184820361012086015261441482826136af565b9150508091505092915050565b600061442d8383614316565b905092915050565b6000602082019050919050565b600061444d826142ea565b61445781856142f5565b93508360208202850161446985614306565b8060005b858110156144a557848403895281516144868582614421565b945061449183614435565b925060208a0199505060018101905061446d565b50829750879550505050505092915050565b600060208201905081810360008301526144d18184614442565b905092915050565b600082825260208201905092915050565b7f4f6e6c79207468652062757965722063616e2063616c6c20746869732066756e60008201527f6374696f6e2e0000000000000000000000000000000000000000000000000000602082015250565b60006145466026836144d9565b9150614551826144ea565b604082019050919050565b6000602082019050818103600083015261457581614539565b9050919050565b7f5061796d656e7420686173206e6f74206265656e206d6164652e000000000000600082015250565b60006145b2601a836144d9565b91506145bd8261457c565b602082019050919050565b600060208201905081810360008301526145e1816145a5565b9050919050565b7f4f7264657220686173206e6f74206265656e20736869707065642e0000000000600082015250565b600061461e601b836144d9565b9150614629826145e8565b602082019050919050565b6000602082019050818103600083015261464d81614611565b9050919050565b7f4e487b7100000000000000000000000000000000000000000000000000000000600052602260045260246000fd5b6000600282049050600182168061469b57607f821691505b6020821081036146ae576146ad614654565b5b50919050565b60008190508160005260206000209050919050565b60006020601f8301049050919050565b600082821b905092915050565b6000600883026147167fffffffffffffffffffffffffffffffffffffffffffffffffffffffffffffffff826146d9565b61472086836146d9565b95508019841693508086168417925050509392505050565b600061475361474e6147498461334b565b613a8f565b61334b565b9050919050565b6000819050919050565b61476d83614738565b6147816147798261475a565b8484546146e6565b825550505050565b600090565b614796614789565b6147a1818484614764565b505050565b5b818110156147c5576147ba60008261478e565b6001810190506147a7565b5050565b601f82111561480a576147db816146b4565b6147e4846146c9565b810160208510156147f3578190505b6148076147ff856146c9565b8301826147a6565b50505b505050565b600082821c905092915050565b600061482d6000198460080261480f565b1980831691505092915050565b6000614846838361481c565b9150826002028217905092915050565b61485f82613669565b67ffffffffffffffff81111561487857614877613414565b5b6148828254614683565b61488d8282856147c9565b600060209050601f8311600181146148c057600084156148ae578287015190505b6148b8858261483a565b865550614920565b601f1984166148ce866146b4565b60005b828110156148f6578489015182556001820191506020850194506020810190506148d1565b86831015614913578489015161490f601f89168261481c565b8355505b6001600288020188555050505b505050505050565b7f53746f726520646f6573206e6f742065786973742e0000000000000000000000600082015250565b600061495e6015836144d9565b915061496982614928565b602082019050919050565b6000602082019050818103600083015261498d81614951565b9050919050565b6000815490506149a381614683565b9050919050565b60008190508160005260206000209050919050565b8181036149cd575050614aa5565b6149d682614994565b67ffffffffffffffff8111156149ef576149ee613414565b5b6149f98254614683565b614a048282856147c9565b6000601f831160018114614a335760008415614a21578287015490505b614a2b858261483a565b865550614a9e565b601f198416614a41876149aa565b9650614a4c866146b4565b60005b82811015614a7457848901548255600182019150600185019450602081019050614a4f565b86831015614a915784890154614a8d601f89168261481c565b8355505b6001600288020188555050505b5050505050505b565b7f496e73756666696369656e74207061796d656e742e0000000000000000000000600082015250565b6000614add6015836144d9565b9150614ae882614aa7565b602082019050919050565b60006020820190508181036000830152614b0c81614ad0565b9050919050565b7f5061796d656e742068617320616c7265616479206265656e206d6164652e0000600082015250565b6000614b49601e836144d9565b9150614b5482614b13565b602082019050919050565b60006020820190508181036000830152614b7881614b3c565b9050919050565b7f50726f64756374206973206e6f7420617661696c61626c652e00000000000000600082015250565b6000614bb56019836144d9565b9150614bc082614b7f565b602082019050919050565b60006020820190508181036000830152614be481614ba8565b9050919050565b614bf481613830565b82525050565b6000606082019050614c0f6000830186614beb565b614c1c602083018561403f565b614c296040830184613fe8565b949350505050565b7f4e487b7100000000000000000000000000000000000000000000000000000000600052601160045260246000fd5b6000614c6b8261334b565b91507fffffffffffffffffffffffffffffffffffffffffffffffffffffffffffffffff8203614c9d57614c9c614c31565b5b600182019050919050565b6000614cb382613abb565b9050919050565b614cc381614ca8565b82525050565b6000608082019050614cde6000830187613fe8565b614ceb602083018661403f565b614cf86040830185614cba565b614d056060830184613fe8565b95945050505050565b600081549050614d1d81614683565b9050919050565b818103614d32575050614e0a565b614d3b82614d0e565b67ffffffffffffffff811115614d5457614d53613414565b5b614d5e8254614683565b614d698282856147c9565b6000601f831160018114614d985760008415614d86578287015490505b614d90858261483a565b865550614e03565b601f198416614da6876146b4565b9650614db1866146b4565b60005b82811015614dd957848901548255600182019150600185019450602081019050614db4565b86831015614df65784890154614df2601f89168261481c565b8355505b6001600288020188555050505b5050505050505b565b7f496e76616c69642073656e64657220616464726573732e000000000000000000600082015250565b6000614e426017836144d9565b9150614e4d82614e0c565b602082019050919050565b60006020820190508181036000830152614e7181614e35565b9050919050565b7f4f6e6c79207468652073656c6c65722063616e2063616c6c207468697320667560008201527f6e6374696f6e2e00000000000000000000000000000000000000000000000000602082015250565b6000614ed46027836144d9565b9150614edf82614e78565b604082019050919050565b60006020820190508181036000830152614f0381614ec7565b9050919050565b7f4f726465722068617320616c7265616479206265656e2066756c66696c6c656460008201527f2e00000000000000000000000000000000000000000000000000000000000000602082015250565b6000614f666021836144d9565b9150614f7182614f0a565b604082019050919050565b60006020820190508181036000830152614f9581614f59565b905091905056fe608060405234801561001057600080fd5b50611304806100206000396000f3fe6080604052600436106100a75760003560e01c8063a035b1fe11610064578063a035b1fe1461019f578063d0e30db0146101ca578063e8a61cc8146101d4578063ed11d7a8146101eb578063fa0af12a14610202578063fe25e00a1461022b576100a7565b806308551a53146100ac5780631794bb3c146100d7578063209ebc08146100f35780636f9fb98a1461011e5780637150d8ae14610149578063765f744c14610174575b600080fd5b3480156100b857600080fd5b506100c1610256565b6040516100ce9190610d29565b60405180910390f35b6100f160048036038101906100ec9190610de9565b61027c565b005b3480156100ff57600080fd5b5061010861038d565b6040516101159190610e57565b60405180910390f35b34801561012a57600080fd5b506101336103a0565b6040516101409190610e81565b60405180910390f35b34801561015557600080fd5b5061015e6103a8565b60405161016b9190610d29565b60405180910390f35b34801561018057600080fd5b506101896103cc565b6040516101969190610e57565b60405180910390f35b3480156101ab57600080fd5b506101b46103df565b6040516101c19190610e81565b60405180910390f35b6101d26103e5565b005b3480156101e057600080fd5b506101e9610584565b005b3480156101f757600080fd5b506102006107e5565b005b34801561020e57600080fd5b5061022960048036038101906102249190610ec8565b6109a8565b005b34801561023757600080fd5b50610240610cc2565b60405161024d9190610d29565b60405180910390f35b600160009054906101000a900473ffffffffffffffffffffffffffffffffffffffff1681565b6000341161028957600080fd5b336000806101000a81548173ffffffffffffffffffffffffffffffffffffffff021916908373ffffffffffffffffffffffffffffffffffffffff16021790555082600160006101000a81548173ffffffffffffffffffffffffffffffffffffffff021916908373ffffffffffffffffffffffffffffffffffffffff16021790555081600260006101000a81548173ffffffffffffffffffffffffffffffffffffffff021916908373ffffffffffffffffffffffffffffffffffffffff160217905550806003819055506000600460006101000a81548160ff0219169083151502179055506000600460016101000a81548160ff021916908315150217905550505050565b600460009054906101000a900460ff1681565b600047905090565b60008054906101000a900473ffffffffffffffffffffffffffffffffffffffff1681565b600460019054906101000a900460ff1681565b60035481565b60008054906101000a900473ffffffffffffffffffffffffffffffffffffffff1673ffffffffffffffffffffffffffffffffffffffff163373ffffffffffffffffffffffffffffffffffffffff1614610473576040517f08c379a000000000000000000000000000000000000000000000000000000000815260040161046a90610f78565b60405180910390fd5b600460009054906101000a900460ff1615801561049d5750600460019054906101000a900460ff16155b6104dc576040517f08c379a00000000000000000000000000000000000000000000000000000000081526004016104d390610fe4565b60405180910390fd5b6003543414610520576040517f08c379a000000000000000000000000000000000000000000000000000000000815260040161051790611050565b60405180910390fd5b3073ffffffffffffffffffffffffffffffffffffffff166108fc349081150290604051600060405180830381858888f19350505050158015610566573d6000803e3d6000fd5b506001600460006101000a81548160ff021916908315150217905550565b60008054906101000a900473ffffffffffffffffffffffffffffffffffffffff1673ffffffffffffffffffffffffffffffffffffffff163373ffffffffffffffffffffffffffffffffffffffff1614610612576040517f08c379a000000000000000000000000000000000000000000000000000000000815260040161060990610f78565b60405180910390fd5b600460009054906101000a900460ff16610661576040517f08c379a0000000000000000000000000000000000000000000000000000000008152600401610658906110bc565b60405180910390fd5b600460019054906101000a900460ff16156106b1576040517f08c379a00000000000000000000000000000000000000000000000000000000081526004016106a890611128565b60405180910390fd5b60008054906101000a900473ffffffffffffffffffffffffffffffffffffffff1673ffffffffffffffffffffffffffffffffffffffff166108fc6003549081150290604051600060405180830381858888f19350505050158015610719573d6000803e3d6000fd5b507fdf20fd1e76bc69d672e4814fafb2c449bba3a5369d8359adf9e05e6fde87b05660008054906101000a900473ffffffffffffffffffffffffffffffffffffffff1660035460405161076d9291906111a7565b60405180910390a16000600460006101000a81548160ff0219169083151502179055506001600460016101000a81548160ff0219169083151502179055507f03445cb5f8dea2a1372e8ac1ea53d21c0c5fbb0cc7dfe8af6d56a5414827179d60006040516107db9190610e57565b60405180910390a1565b600260009054906101000a900473ffffffffffffffffffffffffffffffffffffffff1673ffffffffffffffffffffffffffffffffffffffff163373ffffffffffffffffffffffffffffffffffffffff1614610875576040517f08c379a000000000000000000000000000000000000000000000000000000000815260040161086c90611242565b60405180910390fd5b600460009054906101000a900460ff16801561089d5750600460019054906101000a900460ff165b6108dc576040517f08c379a00000000000000000000000000000000000000000000000000000000081526004016108d3906112ae565b60405180910390fd5b6000479050600260009054906101000a900473ffffffffffffffffffffffffffffffffffffffff1673ffffffffffffffffffffffffffffffffffffffff166108fc829081150290604051600060405180830381858888f19350505050158015610949573d6000803e3d6000fd5b507fdf20fd1e76bc69d672e4814fafb2c449bba3a5369d8359adf9e05e6fde87b056600260009054906101000a900473ffffffffffffffffffffffffffffffffffffffff168260405161099d9291906111a7565b60405180910390a150565b60008054906101000a900473ffffffffffffffffffffffffffffffffffffffff1673ffffffffffffffffffffffffffffffffffffffff163373ffffffffffffffffffffffffffffffffffffffff1614610a36576040517f08c379a0000000000000000000000000000000000000000000000000000000008152600401610a2d90610f78565b60405180910390fd5b600460009054906101000a900460ff16610a85576040517f08c379a0000000000000000000000000000000000000000000000000000000008152600401610a7c906110bc565b60405180910390fd5b600460019054906101000a900460ff1615610ad5576040517f08c379a0000000000000000000000000000000000000000000000000000000008152600401610acc90611128565b60405180910390fd5b8015610ba857600160009054906101000a900473ffffffffffffffffffffffffffffffffffffffff1673ffffffffffffffffffffffffffffffffffffffff166108fc6003549081150290604051600060405180830381858888f19350505050158015610b45573d6000803e3d6000fd5b507fdf20fd1e76bc69d672e4814fafb2c449bba3a5369d8359adf9e05e6fde87b056600160009054906101000a900473ffffffffffffffffffffffffffffffffffffffff16600354604051610b9b9291906111a7565b60405180910390a1610c6d565b60008054906101000a900473ffffffffffffffffffffffffffffffffffffffff1673ffffffffffffffffffffffffffffffffffffffff166108fc6003549081150290604051600060405180830381858888f19350505050158015610c10573d6000803e3d6000fd5b507fdf20fd1e76bc69d672e4814fafb2c449bba3a5369d8359adf9e05e6fde87b05660008054906101000a900473ffffffffffffffffffffffffffffffffffffffff16600354604051610c649291906111a7565b60405180910390a15b6001600460016101000a81548160ff0219169083151502179055507f03445cb5f8dea2a1372e8ac1ea53d21c0c5fbb0cc7dfe8af6d56a5414827179d81604051610cb79190610e57565b60405180910390a150565b600260009054906101000a900473ffffffffffffffffffffffffffffffffffffffff1681565b600073ffffffffffffffffffffffffffffffffffffffff82169050919050565b6000610d1382610ce8565b9050919050565b610d2381610d08565b82525050565b6000602082019050610d3e6000830184610d1a565b92915050565b600080fd5b610d5281610d08565b8114610d5d57600080fd5b50565b600081359050610d6f81610d49565b92915050565b6000610d8082610ce8565b9050919050565b610d9081610d75565b8114610d9b57600080fd5b50565b600081359050610dad81610d87565b92915050565b6000819050919050565b610dc681610db3565b8114610dd157600080fd5b50565b600081359050610de381610dbd565b92915050565b600080600060608486031215610e0257610e01610d44565b5b6000610e1086828701610d60565b9350506020610e2186828701610d9e565b9250506040610e3286828701610dd4565b9150509250925092565b60008115159050919050565b610e5181610e3c565b82525050565b6000602082019050610e6c6000830184610e48565b92915050565b610e7b81610db3565b82525050565b6000602082019050610e966000830184610e72565b92915050565b610ea581610e3c565b8114610eb057600080fd5b50565b600081359050610ec281610e9c565b92915050565b600060208284031215610ede57610edd610d44565b5b6000610eec84828501610eb3565b91505092915050565b600082825260208201905092915050565b7f4f6e6c792062757965722063616e2063616c6c20746869732066756e6374696f60008201527f6e2e000000000000000000000000000000000000000000000000000000000000602082015250565b6000610f62602283610ef5565b9150610f6d82610f06565b604082019050919050565b60006020820190508181036000830152610f9181610f55565b9050919050565b7f457363726f7720697320616c726561647920636f6d706c657465642e00000000600082015250565b6000610fce601c83610ef5565b9150610fd982610f98565b602082019050919050565b60006020820190508181036000830152610ffd81610fc1565b9050919050565b7f496e636f7272656374206465706f73697420616d6f756e742e00000000000000600082015250565b600061103a601983610ef5565b915061104582611004565b602082019050919050565b600060208201905081810360008301526110698161102d565b9050919050565b7f5061796d656e7420686173206e6f74206265656e206d6164652e000000000000600082015250565b60006110a6601a83610ef5565b91506110b182611070565b602082019050919050565b600060208201905081810360008301526110d581611099565b9050919050565b7f44656c697665727920697320616c726561647920636f6e6669726d65642e0000600082015250565b6000611112601e83610ef5565b915061111d826110dc565b602082019050919050565b6000602082019050818103600083015261114181611105565b9050919050565b6000819050919050565b600061116d61116861116384610ce8565b611148565b610ce8565b9050919050565b600061117f82611152565b9050919050565b600061119182611174565b9050919050565b6111a181611186565b82525050565b60006040820190506111bc6000830185611198565b6111c96020830184610e72565b9392505050565b7f4f6e6c7920617262697465722063616e2063616c6c20746869732066756e637460008201527f696f6e2e00000000000000000000000000000000000000000000000000000000602082015250565b600061122c602483610ef5565b9150611237826111d0565b604082019050919050565b6000602082019050818103600083015261125b8161121f565b9050919050565b7f457363726f77206973206e6f7420636f6d706c65746564207965742e00000000600082015250565b6000611298601c83610ef5565b91506112a382611262565b602082019050919050565b600060208201905081810360008301526112c78161128b565b905091905056fea2646970667358221220c6aff7031618d6ec2a8987c3b02cc7aa3e5402fa3528e6c63cb56a38044e76d164736f6c63430008120033a26469706673582212201f5ff02c6f60b4e480036f6aac162c268a11b271b877d5ae0d7c2f609df1d5c764736f6c63430008120033",
  "linkReferences": {},
  "deployedLinkReferences": {}
}