{
  "_format": "hh-sol-artifact-1",
  "contractName": "Products",
  "sourceName": "contracts/basic-solidity-examples/Products.sol",
  "abi": [
    {
      "anonymous": false,
      "inputs": [
        {
          "indexed": false,
          "internalType": "uint256",
          "name": "orderId",
          "type": "uint256"
        },
        {
          "indexed": false,
          "internalType": "address",
          "name": "buyer",
          "type": "address"
        },
        {
          "indexed": false,
          "internalType": "address",
          "name": "seller",
          "type": "address"
        },
        {
          "indexed": false,
          "internalType": "uint256",
          "name": "price",
          "type": "uint256"
        }
      ],
      "name": "OrderCreated",
      "type": "event"
    },
    {
      "anonymous": false,
      "inputs": [
        {
          "indexed": false,
          "internalType": "uint256",
          "name": "orderId",
          "type": "uint256"
        }
      ],
      "name": "OrderDelivered",
      "type": "event"
    },
    {
      "anonymous": false,
      "inputs": [
        {
          "indexed": false,
          "internalType": "uint256",
          "name": "orderId",
          "type": "uint256"
        }
      ],
      "name": "OrderRefunded",
      "type": "event"
    },
    {
      "inputs": [
        {
          "internalType": "string",
          "name": "_name",
          "type": "string"
        },
        {
          "internalType": "string",
          "name": "_category",
          "type": "string"
        },
        {
          "internalType": "string",
          "name": "_imageLink",
          "type": "string"
        },
        {
          "internalType": "string",
          "name": "_descLink",
          "type": "string"
        },
        {
          "internalType": "uint256",
          "name": "_price",
          "type": "uint256"
        },
        {
          "internalType": "string",
          "name": "_location",
          "type": "string"
        },
        {
          "internalType": "uint256",
          "name": "_maxQuantity",
          "type": "uint256"
        },
        {
          "internalType": "uint256",
          "name": "_refundTimeLimit",
          "type": "uint256"
        }
      ],
      "name": "addProduct",
      "outputs": [
        {
          "internalType": "uint256",
          "name": "",
          "type": "uint256"
        }
      ],
      "stateMutability": "nonpayable",
      "type": "function"
    },
    {
      "inputs": [
        {
          "internalType": "address",
          "name": "",
          "type": "address"
        }
      ],
      "name": "arbiters",
      "outputs": [
        {
          "internalType": "bool",
          "name": "",
          "type": "bool"
        }
      ],
      "stateMutability": "view",
      "type": "function"
    },
    {
      "inputs": [
        {
          "internalType": "uint256",
          "name": "_id",
          "type": "uint256"
        }
      ],
      "name": "cancelLive",
      "outputs": [
        {
          "internalType": "bool",
          "name": "",
          "type": "bool"
        }
      ],
      "stateMutability": "nonpayable",
      "type": "function"
    },
    {
      "inputs": [
        {
          "internalType": "address",
          "name": "pubkey",
          "type": "address"
        }
      ],
      "name": "checkUserExists",
      "outputs": [
        {
          "internalType": "bool",
          "name": "",
          "type": "bool"
        }
      ],
      "stateMutability": "view",
      "type": "function"
    },
    {
      "inputs": [
        {
          "internalType": "uint256",
          "name": "_orderId",
          "type": "uint256"
        },
        {
          "internalType": "bool",
          "name": "_success",
          "type": "bool"
        }
      ],
      "name": "confirmDelivery",
      "outputs": [],
      "stateMutability": "nonpayable",
      "type": "function"
    },
    {
      "inputs": [
        {
          "internalType": "string",
          "name": "_storeName",
          "type": "string"
        },
        {
          "internalType": "string",
          "name": "_category",
          "type": "string"
        },
        {
          "internalType": "string",
          "name": "_name",
          "type": "string"
        },
        {
          "internalType": "string",
          "name": "_lastName",
          "type": "string"
        },
        {
          "internalType": "string",
          "name": "_description",
          "type": "string"
        }
      ],
      "name": "createAStore",
      "outputs": [],
      "stateMutability": "nonpayable",
      "type": "function"
    },
    {
      "inputs": [],
      "name": "getLiveDetail",
      "outputs": [
        {
          "components": [
            {
              "internalType": "string",
              "name": "callId",
              "type": "string"
            },
            {
              "internalType": "string",
              "name": "storeName",
              "type": "string"
            },
            {
              "internalType": "address[]",
              "name": "participant",
              "type": "address[]"
            }
          ],
          "internalType": "struct Products.Live[]",
          "name": "",
          "type": "tuple[]"
        }
      ],
      "stateMutability": "view",
      "type": "function"
    },
    {
      "inputs": [
        {
          "internalType": "address",
          "name": "_owner",
          "type": "address"
        }
      ],
      "name": "getProductByAddress",
      "outputs": [
        {
          "components": [
            {
              "internalType": "string",
              "name": "name",
              "type": "string"
            },
            {
              "internalType": "string",
              "name": "category",
              "type": "string"
            },
            {
              "internalType": "string",
              "name": "imageLink",
              "type": "string"
            },
            {
              "internalType": "string",
              "name": "descLink",
              "type": "string"
            },
            {
              "internalType": "uint256",
              "name": "price",
              "type": "uint256"
            },
            {
              "internalType": "uint256",
              "name": "index",
              "type": "uint256"
            },
            {
              "internalType": "enum Products.OrderStatus",
              "name": "status",
              "type": "uint8"
            },
            {
              "internalType": "uint256",
              "name": "quantity",
              "type": "uint256"
            },
            {
              "internalType": "string",
              "name": "location",
              "type": "string"
            },
            {
              "internalType": "uint256",
              "name": "maxQuantity",
              "type": "uint256"
            },
            {
              "internalType": "address payable",
              "name": "owner",
              "type": "address"
            },
            {
              "internalType": "uint256",
              "name": "refundTimeLimit",
              "type": "uint256"
            }
          ],
          "internalType": "struct Products.Product[]",
          "name": "",
          "type": "tuple[]"
        }
      ],
      "stateMutability": "view",
      "type": "function"
    },
    {
      "inputs": [
        {
          "internalType": "address",
          "name": "_owner",
          "type": "address"
        }
      ],
      "name": "getUserStoreDetails",
      "outputs": [
        {
          "internalType": "address",
          "name": "",
          "type": "address"
        },
        {
          "internalType": "string",
          "name": "",
          "type": "string"
        },
        {
          "internalType": "bool",
          "name": "",
          "type": "bool"
        },
        {
          "internalType": "string",
          "name": "",
          "type": "string"
        },
        {
          "internalType": "string",
          "name": "",
          "type": "string"
        },
        {
          "internalType": "string",
          "name": "",
          "type": "string"
        },
        {
          "internalType": "string",
          "name": "",
          "type": "string"
        }
      ],
      "stateMutability": "view",
      "type": "function"
    },
    {
      "inputs": [],
      "name": "orderIdCounter",
      "outputs": [
        {
          "internalType": "uint256",
          "name": "",
          "type": "uint256"
        }
      ],
      "stateMutability": "view",
      "type": "function"
    },
    {
      "inputs": [
        {
          "internalType": "uint256",
          "name": "",
          "type": "uint256"
        }
      ],
      "name": "orders",
      "outputs": [
        {
          "internalType": "uint256",
          "name": "orderId",
          "type": "uint256"
        },
        {
          "internalType": "address",
          "name": "buyer",
          "type": "address"
        },
        {
          "internalType": "address",
          "name": "seller",
          "type": "address"
        },
        {
          "internalType": "uint256",
          "name": "price",
          "type": "uint256"
        },
        {
          "internalType": "enum Products.OrderStatus",
          "name": "status",
          "type": "uint8"
        },
        {
          "internalType": "bool",
          "name": "isPaid",
          "type": "bool"
        },
        {
          "internalType": "bool",
          "name": "isFulfilled",
          "type": "bool"
        },
        {
          "internalType": "bool",
          "name": "isRefunded",
          "type": "bool"
        },
        {
          "internalType": "contract Escrow",
          "name": "escrow",
          "type": "address"
        }
      ],
      "stateMutability": "view",
      "type": "function"
    },
    {
      "inputs": [
        {
          "internalType": "uint256",
          "name": "id",
          "type": "uint256"
        },
        {
          "internalType": "uint256",
          "name": "_price",
          "type": "uint256"
        },
        {
          "internalType": "address payable",
          "name": "_arbiter",
          "type": "address"
        }
      ],
      "name": "placeOrder",
      "outputs": [],
      "stateMutability": "payable",
      "type": "function"
    },
    {
      "inputs": [
        {
          "internalType": "uint256",
          "name": "_orderId",
          "type": "uint256"
        }
      ],
      "name": "refundOrder",
      "outputs": [],
      "stateMutability": "nonpayable",
      "type": "function"
    },
    {
      "inputs": [
        {
          "internalType": "string",
          "name": "_callId",
          "type": "string"
        }
      ],
      "name": "startStream",
      "outputs": [
        {
          "internalType": "bool",
          "name": "",
          "type": "bool"
        }
      ],
      "stateMutability": "nonpayable",
      "type": "function"
    }
  ],
  "bytecode": "0x608060405234801561001057600080fd5b50613338806100206000396000f3fe6080604052600436106100dd5760003560e01c8063a85c38ef1161007f578063cff1d58511610059578063cff1d585146102d7578063e35f9680146102f7578063e57e4a9414610317578063f56a589d1461033957600080fd5b8063a85c38ef146101fd578063be37442314610294578063c018c457146102b757600080fd5b80635d39c071116100bb5780635d39c0711461014d5780635f0d382a1461016d5780636ef7e8af1461019a5780637bf2bb10146101cd57600080fd5b806304ef0781146100e2578063133f50f51461010457806335e4365f1461013a575b600080fd5b3480156100ee57600080fd5b506101026100fd366004611711565b610359565b005b34801561011057600080fd5b5061012461011f366004611773565b610510565b60405161013191906117a6565b60405180910390f35b6101026101483660046117b4565b610543565b34801561015957600080fd5b506101246101683660046118ff565b610827565b34801561017957600080fd5b5061018d610188366004611773565b6108ae565b6040516101319190611b6c565b3480156101a657600080fd5b506101ba6101b5366004611773565b610c7c565b6040516101319796959493929190611b7d565b3480156101d957600080fd5b506101246101e8366004611773565b60046020526000908152604090205460ff1681565b34801561020957600080fd5b5061027f610218366004611c07565b60036020819052600091825260409091208054600182015460028301549383015460049093015491936001600160a01b039182169390821692909160ff80831692610100810482169262010000820483169263010000008304169164010000000090041689565b60405161013199989796959493929190611c6a565b3480156102a057600080fd5b506102aa60015481565b6040516101319190611cf0565b3480156102c357600080fd5b506101026102d2366004611c07565b610fa5565b3480156102e357600080fd5b506101026102f2366004611cfe565b61112f565b34801561030357600080fd5b50610124610312366004611c07565b6111b8565b34801561032357600080fd5b5061032c61120f565b6040516101319190611f13565b34801561034557600080fd5b506102aa610354366004611f24565b6113f4565b60008281526003602052604090206001015482906001600160a01b0316331461039d5760405162461bcd60e51b8152600401610394906120ba565b60405180910390fd5b60008381526003602052604090206004810154610100900460ff166103d45760405162461bcd60e51b815260040161039490612101565b600260048083015460ff16908111156103ef576103ef611996565b1461040c5760405162461bcd60e51b815260040161039490612145565b6004818101546040517ffa0af12a0000000000000000000000000000000000000000000000000000000081526401000000009091046001600160a01b03169163fa0af12a9161045d918791016117a6565b600060405180830381600087803b15801561047757600080fd5b505af115801561048b573d6000803e3d6000fd5b5050505082156104a95760048101805460ff191660031790556104bf565b60048101805463ff0000ff191663010000041790555b60048101805462ff00001916620100001790556040517fe21fe02c1589242b30be2057f54fd54b7ddc463695d19ffdb54f9ebb0584f24a90610502908690611cf0565b60405180910390a150505050565b6001600160a01b038116600090815260076020526040812060010180548291906105399061216b565b9050119050919050565b60015460009081526003602090815260408083208684526005909252909120600401543410156105855760405162461bcd60e51b8152600401610394906121cb565b6004810154610100900460ff16156105af5760405162461bcd60e51b81526004016103949061220f565b60008481526005602052604081206006015460ff1660048111156105d5576105d5611996565b146105f25760405162461bcd60e51b815260040161039490612253565b600084815260056020526040808220600a015490516001600160a01b03909116919061061d90611663565b604051809103906000f080158015610639573d6000803e3d6000fd5b506040517f1794bb3c0000000000000000000000000000000000000000000000000000000081529091506001600160a01b03821690631794bb3c9061068690859088908a90600401612263565b600060405180830381600087803b1580156106a057600080fd5b505af11580156106b4573d6000803e3d6000fd5b50505050806001600160a01b031663d0e30db0346040518263ffffffff1660e01b81526004016000604051808303818588803b1580156106f357600080fd5b505af1158015610707573d6000803e3d6000fd5b505060018054935091506000905061071e836122a1565b9091555050600180548455838101805473ffffffffffffffffffffffffffffffffffffffff19908116339081179092556002860180546001600160a01b0387811691841691909117909155600387018990556004870180547fffffffffffffffff0000000000000000000000000000000000000000000000001664010000000087841602178517905560008a8152600560209081526040808320600a01549093168252600781528282206006018054808801825590835291200180549092168317909155915491517ff9e17940e547201709f9aaacdec8ab3566601c60d8f5affb54f74b79b0b50b139261081792909186908a906122bb565b60405180910390a1505050505050565b6009546000908152600260205260408120806108438482612396565b50336000908152600760205260409020600182810191610864910182612469565b5033600090815260076020526040902060028101805460ff191660011790556008016108908482612396565b50503360009081526007602052604090206002015460ff1692915050565b6001600160a01b0381166000908152600660209081526040808320805482518185028101850190935280835260609492939192909184015b82821015610c7157838290600052602060002090600c02016040518061018001604052908160008201805461091a9061216b565b80601f01602080910402602001604051908101604052809291908181526020018280546109469061216b565b80156109935780601f1061096857610100808354040283529160200191610993565b820191906000526020600020905b81548152906001019060200180831161097657829003601f168201915b505050505081526020016001820180546109ac9061216b565b80601f01602080910402602001604051908101604052809291908181526020018280546109d89061216b565b8015610a255780601f106109fa57610100808354040283529160200191610a25565b820191906000526020600020905b815481529060010190602001808311610a0857829003601f168201915b50505050508152602001600282018054610a3e9061216b565b80601f0160208091040260200160405190810160405280929190818152602001828054610a6a9061216b565b8015610ab75780601f10610a8c57610100808354040283529160200191610ab7565b820191906000526020600020905b815481529060010190602001808311610a9a57829003601f168201915b50505050508152602001600382018054610ad09061216b565b80601f0160208091040260200160405190810160405280929190818152602001828054610afc9061216b565b8015610b495780601f10610b1e57610100808354040283529160200191610b49565b820191906000526020600020905b815481529060010190602001808311610b2c57829003601f168201915b5050509183525050600482810154602083015260058301546040830152600683015460609092019160ff1690811115610b8457610b84611996565b6004811115610b9557610b95611996565b815260200160078201548152602001600882018054610bb39061216b565b80601f0160208091040260200160405190810160405280929190818152602001828054610bdf9061216b565b8015610c2c5780601f10610c0157610100808354040283529160200191610c2c565b820191906000526020600020905b815481529060010190602001808311610c0f57829003601f168201915b50505091835250506009820154602080830191909152600a8301546001600160a01b03166040830152600b9092015460609091015290825260019290920191016108e6565b505050509050919050565b6001600160a01b0380821660009081526007602081905260408220805460028201546003830180549596606096889688968796879687969190951694909360ff9091169282019160058101916004820191600101908690610cdc9061216b565b80601f0160208091040260200160405190810160405280929190818152602001828054610d089061216b565b8015610d555780601f10610d2a57610100808354040283529160200191610d55565b820191906000526020600020905b815481529060010190602001808311610d3857829003601f168201915b50505050509550838054610d689061216b565b80601f0160208091040260200160405190810160405280929190818152602001828054610d949061216b565b8015610de15780601f10610db657610100808354040283529160200191610de1565b820191906000526020600020905b815481529060010190602001808311610dc457829003601f168201915b50505050509350828054610df49061216b565b80601f0160208091040260200160405190810160405280929190818152602001828054610e209061216b565b8015610e6d5780601f10610e4257610100808354040283529160200191610e6d565b820191906000526020600020905b815481529060010190602001808311610e5057829003601f168201915b50505050509250818054610e809061216b565b80601f0160208091040260200160405190810160405280929190818152602001828054610eac9061216b565b8015610ef95780601f10610ece57610100808354040283529160200191610ef9565b820191906000526020600020905b815481529060010190602001808311610edc57829003601f168201915b50505050509150808054610f0c9061216b565b80601f0160208091040260200160405190810160405280929190818152602001828054610f389061216b565b8015610f855780601f10610f5a57610100808354040283529160200191610f85565b820191906000526020600020905b815481529060010190602001808311610f6857829003601f168201915b505050505090509650965096509650965096509650919395979092949650565b60008181526003602052604090206002015481906001600160a01b03163314610fe05760405162461bcd60e51b81526004016103949061258d565b60008281526003602052604090206004810154610100900460ff166110175760405162461bcd60e51b815260040161039490612101565b600481015462010000900460ff16156110425760405162461bcd60e51b8152600401610394906125f7565b6000838152600560205260409020600b01544210156110735760405162461bcd60e51b815260040161039490612661565b8060040160049054906101000a90046001600160a01b03166001600160a01b031663e8a61cc86040518163ffffffff1660e01b8152600401600060405180830381600087803b1580156110c557600080fd5b505af11580156110d9573d6000803e3d6000fd5b5050505060048101805463ff0000ff191663010000041790556040517f303a31648d19f17852cf82657162c4bdd4a06ab3f36f1e7ae1118f4ca6473e1190611122908590611cf0565b60405180910390a1505050565b3360009081526007602052604090206001810161114c8782612396565b50805473ffffffffffffffffffffffffffffffffffffffff191633178155600481016111788582612396565b50600381016111878682612396565b50600581016111968482612396565b50600781016111a58382612396565b50600201805460ff191690555050505050565b6000818152600260205260408120816111d18282611670565b6111df600183016000611670565b6111ed6002830160006116ad565b5050336000908152600760205260408120600201805460ff1916905592915050565b6060600c805480602002602001604051908101604052809291908181526020016000905b828210156113eb57838290600052602060002090600302016040518060600160405290816000820180546112669061216b565b80601f01602080910402602001604051908101604052809291908181526020018280546112929061216b565b80156112df5780601f106112b4576101008083540402835291602001916112df565b820191906000526020600020905b8154815290600101906020018083116112c257829003601f168201915b505050505081526020016001820180546112f89061216b565b80601f01602080910402602001604051908101604052809291908181526020018280546113249061216b565b80156113715780601f1061134657610100808354040283529160200191611371565b820191906000526020600020905b81548152906001019060200180831161135457829003601f168201915b50505050508152602001600282018054806020026020016040519081016040528092919081815260200182805480156113d357602002820191906000526020600020905b81546001600160a01b031681526001909101906020018083116113b5575b50505050508152505081526020019060010190611233565b50505050905090565b3360008181526007602052604081205490916001600160a01b039091161461142e5760405162461bcd60e51b8152600401610394906126cb565b61143733610510565b6114535760405162461bcd60e51b81526004016103949061270f565b336114705760405162461bcd60e51b815260040161039490612753565b60088054906000611480836122a1565b90915550506008546000908152600560205260409020806114a18b82612396565b50600a8101805473ffffffffffffffffffffffffffffffffffffffff191633179055600181016114d18a82612396565b50600381016114e08882612396565b50600281016114ef8982612396565b5060088054600583015581016115058682612396565b50600981018490556004810186905560006007820181905560068201805460ff19169055600b8201849055600a805460018101825591528190600c027fc65a7bb8d6351c1cf70c95a316cc6a92839c986682d98bc35f958f4883f9d2a8018061156e8382612469565b5060018181019061158190840182612469565b5060028181019061159490840182612469565b506003818101906115a790840182612469565b506004828101548282015560058084015490830155600680840154908301805460ff90921692909160ff19169060019084908111156115e8576115e8611996565b0217905550600782015481600701556008820181600801908161160b9190612469565b5060098281015490820155600a80830154908201805473ffffffffffffffffffffffffffffffffffffffff19166001600160a01b03909216919091179055600b91820154910155505060085498975050505050505050565b610b9f8061276483390190565b50805461167c9061216b565b6000825580601f1061168c575050565b601f0160209004906000526020600020908101906116aa91906116c7565b50565b50805460008255906000526020600020908101906116aa91905b5b808211156116dc57600081556001016116c8565b5090565b805b81146116aa57600080fd5b80356116f8816116e0565b92915050565b8015156116e2565b80356116f8816116fe565b6000806040838503121561172757611727600080fd5b600061173385856116ed565b925050602061174485828601611706565b9150509250929050565b60006001600160a01b0382166116f8565b6116e28161174e565b80356116f88161175f565b60006020828403121561178857611788600080fd5b60006117948484611768565b949350505050565b8015155b82525050565b602081016116f8828461179c565b6000806000606084860312156117cc576117cc600080fd5b60006117d886866116ed565b93505060206117e9868287016116ed565b92505060406117fa86828701611768565b9150509250925092565b634e487b7160e01b600052604160045260246000fd5b601f19601f830116810181811067ffffffffffffffff8211171561184057611840611804565b6040525050565b600061185260405190565b905061185e828261181a565b919050565b600067ffffffffffffffff82111561187d5761187d611804565b601f19601f83011660200192915050565b82818337506000910152565b60006118ad6118a884611863565b611847565b9050828152602081018484840111156118c8576118c8600080fd5b6118d384828561188e565b509392505050565b600082601f8301126118ef576118ef600080fd5b813561179484826020860161189a565b60006020828403121561191457611914600080fd5b813567ffffffffffffffff81111561192e5761192e600080fd5b611794848285016118db565b60005b8381101561195557818101518382015260200161193d565b50506000910152565b6000611968825190565b80845260208401935061197f81856020860161193a565b601f01601f19169290920192915050565b806117a0565b634e487b7160e01b600052602160045260246000fd5b600581106116aa576116aa611996565b8061185e816119ac565b60006116f8826119bc565b6117a0816119c6565b6117a08161174e565b8051610180808452600091908401906119fc828261195e565b91505060208301518482036020860152611a16828261195e565b91505060408301518482036040860152611a30828261195e565b91505060608301518482036060860152611a4a828261195e565b9150506080830151611a5f6080860182611990565b5060a0830151611a7260a0860182611990565b5060c0830151611a8560c08601826119d1565b5060e0830151611a9860e0860182611990565b50610100830151848203610100860152611ab2828261195e565b915050610120830151611ac9610120860182611990565b50610140830151611ade6101408601826119da565b506101608301516118d3610160860182611990565b6000611aff83836119e3565b9392505050565b6000611b10825190565b80845260208401935083602082028501611b2a8560200190565b8060005b85811015611b5f5784840389528151611b478582611af3565b94506020830160209a909a0199925050600101611b2e565b5091979650505050505050565b60208082528101611aff8184611b06565b60e08101611b8b828a6119da565b8181036020830152611b9d818961195e565b9050611bac604083018861179c565b8181036060830152611bbe818761195e565b90508181036080830152611bd2818661195e565b905081810360a0830152611be6818561195e565b905081810360c0830152611bfa818461195e565b9998505050505050505050565b600060208284031215611c1c57611c1c600080fd5b600061179484846116ed565b60006116f86001600160a01b038316611c3f565b90565b6001600160a01b031690565b60006116f882611c28565b60006116f882611c4b565b6117a081611c56565b6101208101611c79828c611990565b611c86602083018b6119da565b611c93604083018a6119da565b611ca06060830189611990565b611cad60808301886119d1565b611cba60a083018761179c565b611cc760c083018661179c565b611cd460e083018561179c565b611ce2610100830184611c61565b9a9950505050505050505050565b602081016116f88284611990565b600080600080600060a08688031215611d1957611d19600080fd5b853567ffffffffffffffff811115611d3357611d33600080fd5b611d3f888289016118db565b955050602086013567ffffffffffffffff811115611d5f57611d5f600080fd5b611d6b888289016118db565b945050604086013567ffffffffffffffff811115611d8b57611d8b600080fd5b611d97888289016118db565b935050606086013567ffffffffffffffff811115611db757611db7600080fd5b611dc3888289016118db565b925050608086013567ffffffffffffffff811115611de357611de3600080fd5b611def888289016118db565b9150509295509295909350565b6000611e0883836119da565b505060200190565b6000611e1a825190565b80845260209384019383018060005b83811015611e4e578151611e3d8882611dfc565b975060208301925050600101611e29565b509495945050505050565b8051606080845260009190840190611e71828261195e565b91505060208301518482036020860152611e8b828261195e565b91505060408301518482036040860152611ea58282611e10565b95945050505050565b6000611aff8383611e59565b6000611ec4825190565b80845260208401935083602082028501611ede8560200190565b8060005b85811015611b5f5784840389528151611efb8582611eae565b94506020830160209a909a0199925050600101611ee2565b60208082528101611aff8184611eba565b600080600080600080600080610100898b031215611f4457611f44600080fd5b883567ffffffffffffffff811115611f5e57611f5e600080fd5b611f6a8b828c016118db565b985050602089013567ffffffffffffffff811115611f8a57611f8a600080fd5b611f968b828c016118db565b975050604089013567ffffffffffffffff811115611fb657611fb6600080fd5b611fc28b828c016118db565b965050606089013567ffffffffffffffff811115611fe257611fe2600080fd5b611fee8b828c016118db565b9550506080611fff8b828c016116ed565b94505060a089013567ffffffffffffffff81111561201f5761201f600080fd5b61202b8b828c016118db565b93505060c061203c8b828c016116ed565b92505060e061204d8b828c016116ed565b9150509295985092959890939650565b602681526000602082017f4f6e6c79207468652062757965722063616e2063616c6c20746869732066756e81527f6374696f6e2e0000000000000000000000000000000000000000000000000000602082015291505b5060400190565b602080825281016116f88161205d565b601a81526000602082017f5061796d656e7420686173206e6f74206265656e206d6164652e000000000000815291505b5060200190565b602080825281016116f8816120ca565b601b81526000602082017f4f7264657220686173206e6f74206265656e20736869707065642e0000000000815291506120fa565b602080825281016116f881612111565b634e487b7160e01b600052602260045260246000fd5b60028104600182168061217f57607f821691505b60208210810361219157612191612155565b50919050565b601581526000602082017f496e73756666696369656e74207061796d656e742e0000000000000000000000815291506120fa565b602080825281016116f881612197565b601e81526000602082017f5061796d656e742068617320616c7265616479206265656e206d6164652e0000815291506120fa565b602080825281016116f8816121db565b601981526000602082017f50726f64756374206973206e6f7420617661696c61626c652e00000000000000815291506120fa565b602080825281016116f88161221f565b6060810161227182866119da565b61227e6020830185611c61565b6117946040830184611990565b634e487b7160e01b600052601160045260246000fd5b600060001982036122b4576122b461228b565b5060010190565b608081016122c98287611990565b6122d660208301866119da565b6122e36040830185611c61565b611ea56060830184611990565b60006116f8611c3c8381565b612305836122f0565b81546008840282811b60001990911b908116901990911617825550505050565b60006123328184846122fc565b505050565b818110156123525761234a600082612325565b600101612337565b5050565b601f821115612332576000818152602090206020601f8501048101602085101561237d5750805b61238f6020601f860104830182612337565b5050505050565b815167ffffffffffffffff8111156123b0576123b0611804565b6123ba825461216b565b6123c5828285612356565b6020601f8311600181146123fa57600084156123e15750858201515b600019600886021c19811660028602175b865550612456565b600085815260208120601f198616915b8281101561242a578885015182556020948501946001909201910161240a565b8683101561244957888501516000196008601f8a16021c1981165b8355505b6001600288020188555050505b505050505050565b80546116f88161216b565b818103612474575050565b61247d8261245e565b67ffffffffffffffff81111561249557612495611804565b61249f825461216b565b6124aa828285612356565b6000601f8311600181146124da57600084156123e1575081860154600019600886021c19811660028602176123f2565b600095865260208087208688529087209096601f19861691905b8281101561251457888501548255600194850194909101906020016124f4565b8683101561244957888501546000196008601f8a16021c198116612445565b602781526000602082017f4f6e6c79207468652073656c6c65722063616e2063616c6c207468697320667581527f6e6374696f6e2e00000000000000000000000000000000000000000000000000602082015291506120b3565b602080825281016116f881612533565b602181526000602082017f4f726465722068617320616c7265616479206265656e2066756c66696c6c656481527f2e00000000000000000000000000000000000000000000000000000000000000602082015291506120b3565b602080825281016116f88161259d565b602781526000602082017f526566756e642074696d65206c696d697420686173206e6f74206265656e207281527f6561636865642e00000000000000000000000000000000000000000000000000602082015291506120b3565b602080825281016116f881612607565b602f81526000602082017f4f6e6c792074686520636f6e7472616374206f776e65722063616e2063616c6c81527f20746869732066756e6374696f6e2e0000000000000000000000000000000000602082015291506120b3565b602080825281016116f881612671565b601581526000602082017f53746f726520646f6573206e6f742065786973742e0000000000000000000000815291506120fa565b602080825281016116f8816126db565b601781526000602082017f496e76616c69642073656e64657220616464726573732e000000000000000000815291506120fa565b602080825281016116f88161271f56fe608060405234801561001057600080fd5b50610b7f806100206000396000f3fe6080604052600436106100c75760003560e01c8063a035b1fe11610074578063ed11d7a81161004e578063ed11d7a8146101cc578063fa0af12a146101e1578063fe25e00a1461020157600080fd5b8063a035b1fe14610199578063d0e30db0146101af578063e8a61cc8146101b757600080fd5b80636f9fb98a116100a55780636f9fb98a1461013e5780637150d8ae1461015a578063765f744c1461017a57600080fd5b806308551a53146100cc5780631794bb3c14610102578063209ebc0814610117575b600080fd5b3480156100d857600080fd5b506001546100ec906001600160a01b031681565b6040516100f99190610768565b60405180910390f35b6101156101103660046107a9565b610221565b005b34801561012357600080fd5b506004546101319060ff1681565b6040516100f99190610801565b34801561014a57600080fd5b50475b6040516100f99190610815565b34801561016657600080fd5b506000546100ec906001600160a01b031681565b34801561018657600080fd5b5060045461013190610100900460ff1681565b3480156101a557600080fd5b5061014d60035481565b610115610291565b3480156101c357600080fd5b50610115610358565b3480156101d857600080fd5b5061011561049a565b3480156101ed57600080fd5b506101156101fc366004610836565b61057e565b34801561020d57600080fd5b506002546100ec906001600160a01b031681565b6000341161022e57600080fd5b600080547fffffffffffffffffffffffff00000000000000000000000000000000000000009081163317909155600180546001600160a01b0395861690831617905560028054939094169216919091179091556003556004805461ffff19169055565b6000546001600160a01b031633146102c45760405162461bcd60e51b81526004016102bb906108bc565b60405180910390fd5b60045460ff161580156102df5750600454610100900460ff16155b6102fb5760405162461bcd60e51b81526004016102bb90610903565b600354341461031c5760405162461bcd60e51b81526004016102bb90610947565b60405130903480156108fc02916000818181858888f19350505050158015610348573d6000803e3d6000fd5b506004805460ff19166001179055565b6001546001600160a01b031633146103825760405162461bcd60e51b81526004016102bb906109b1565b60045460ff166103a45760405162461bcd60e51b81526004016102bb906109f5565b600454610100900460ff16156103cc5760405162461bcd60e51b81526004016102bb90610a39565b600080546003546040516001600160a01b039092169281156108fc029290818181858888f19350505050158015610407573d6000803e3d6000fd5b506000546003546040517fdf20fd1e76bc69d672e4814fafb2c449bba3a5369d8359adf9e05e6fde87b05692610448926001600160a01b0390911691610a79565b60405180910390a16004805461ffff19166101001790556040517f03445cb5f8dea2a1372e8ac1ea53d21c0c5fbb0cc7dfe8af6d56a5414827179d9061049090600090610801565b60405180910390a1565b6002546001600160a01b031633146104c45760405162461bcd60e51b81526004016102bb90610af5565b60045460ff1680156104dd5750600454610100900460ff165b6104f95760405162461bcd60e51b81526004016102bb90610b39565b60025460405147916001600160a01b03169082156108fc029083906000818181858888f19350505050158015610533573d6000803e3d6000fd5b506002546040517fdf20fd1e76bc69d672e4814fafb2c449bba3a5369d8359adf9e05e6fde87b05691610573916001600160a01b03909116908490610a79565b60405180910390a150565b6000546001600160a01b031633146105a85760405162461bcd60e51b81526004016102bb906108bc565b60045460ff166105ca5760405162461bcd60e51b81526004016102bb906109f5565b600454610100900460ff16156105f25760405162461bcd60e51b81526004016102bb90610a39565b8015610682576001546003546040516001600160a01b039092169181156108fc0291906000818181858888f19350505050158015610634573d6000803e3d6000fd5b506001546003546040517fdf20fd1e76bc69d672e4814fafb2c449bba3a5369d8359adf9e05e6fde87b05692610675926001600160a01b0390911691610a79565b60405180910390a1610707565b600080546003546040516001600160a01b039092169281156108fc029290818181858888f193505050501580156106bd573d6000803e3d6000fd5b506000546003546040517fdf20fd1e76bc69d672e4814fafb2c449bba3a5369d8359adf9e05e6fde87b056926106fe926001600160a01b0390911691610a79565b60405180910390a15b6004805461ff0019166101001790556040517f03445cb5f8dea2a1372e8ac1ea53d21c0c5fbb0cc7dfe8af6d56a5414827179d90610573908390610801565b60006001600160a01b0382165b92915050565b61076281610746565b82525050565b602081016107538284610759565b61077f81610746565b811461078a57600080fd5b50565b803561075381610776565b8061077f565b803561075381610798565b6000806000606084860312156107c1576107c1600080fd5b60006107cd868661078d565b93505060206107de8682870161078d565b92505060406107ef8682870161079e565b9150509250925092565b801515610762565b6020810161075382846107f9565b80610762565b60208101610753828461080f565b80151561077f565b803561075381610823565b60006020828403121561084b5761084b600080fd5b6000610857848461082b565b949350505050565b602281526000602082017f4f6e6c792062757965722063616e2063616c6c20746869732066756e6374696f81527f6e2e000000000000000000000000000000000000000000000000000000000000602082015291505b5060400190565b602080825281016107538161085f565b601c81526000602082017f457363726f7720697320616c726561647920636f6d706c657465642e00000000815291505b5060200190565b60208082528101610753816108cc565b601981526000602082017f496e636f7272656374206465706f73697420616d6f756e742e00000000000000815291506108fc565b6020808252810161075381610913565b602381526000602082017f4f6e6c792073656c6c65722063616e2063616c6c20746869732066756e63746981527f6f6e2e0000000000000000000000000000000000000000000000000000000000602082015291506108b5565b6020808252810161075381610957565b601a81526000602082017f5061796d656e7420686173206e6f74206265656e206d6164652e000000000000815291506108fc565b60208082528101610753816109c1565b601e81526000602082017f44656c697665727920697320616c726561647920636f6e6669726d65642e0000815291506108fc565b6020808252810161075381610a05565b60006001600160a01b038216610753565b600061075382610a49565b600061075382610a5a565b61076281610a65565b60408101610a878285610a70565b610a94602083018461080f565b9392505050565b602481526000602082017f4f6e6c7920617262697465722063616e2063616c6c20746869732066756e637481527f696f6e2e00000000000000000000000000000000000000000000000000000000602082015291506108b5565b6020808252810161075381610a9b565b601c81526000602082017f457363726f77206973206e6f7420636f6d706c65746564207965742e00000000815291506108fc565b6020808252810161075381610b0556fea2646970667358221220790d5ca60ecea5bf2bff404442c3a82f38ebde86981138b1442e877661f1316c64736f6c63430008110033a26469706673582212202de5675ca1be0cb56d811ef90324b85dccfeb463424e9c57ee08173adeeb0ac064736f6c63430008110033",
  "linkReferences": {},
  "deployedLinkReferences": {}
}